{
  "_format": "hh-sol-artifact-1",
  "contractName": "DecentraCore",
  "sourceName": "contracts/DecentraCore.sol",
  "abi": [
    {
      "inputs": [
        {
          "internalType": "address",
          "name": "_dDollar",
          "type": "address"
        },
        {
          "internalType": "address",
          "name": "_dStock",
          "type": "address"
        },
        {
          "internalType": "address",
          "name": "_dScore",
          "type": "address"
        }
      ],
      "stateMutability": "nonpayable",
      "type": "constructor"
    },
    {
      "anonymous": false,
      "inputs": [
        {
          "indexed": false,
          "internalType": "address",
          "name": "target",
          "type": "address"
        },
        {
          "indexed": false,
          "internalType": "bytes",
          "name": "call_data",
          "type": "bytes"
        }
      ],
      "name": "FunctionCallDelegated",
      "type": "event"
    },
    {
      "anonymous": false,
      "inputs": [
        {
          "indexed": false,
          "internalType": "uint256",
          "name": "proposalId",
          "type": "uint256"
        },
        {
          "indexed": false,
          "internalType": "uint256",
          "name": "proposalAmount",
          "type": "uint256"
        },
        {
          "indexed": false,
          "internalType": "address",
          "name": "target",
          "type": "address"
        },
        {
          "indexed": false,
          "internalType": "bytes",
          "name": "call_data",
          "type": "bytes"
        }
      ],
      "name": "NewProposal",
      "type": "event"
    },
    {
      "anonymous": false,
      "inputs": [
        {
          "indexed": false,
          "internalType": "uint256",
          "name": "proposalId",
          "type": "uint256"
        },
        {
          "indexed": false,
          "internalType": "address",
          "name": "voter",
          "type": "address"
        },
        {
          "indexed": false,
          "internalType": "bool",
          "name": "vote",
          "type": "bool"
        }
      ],
      "name": "NewVote",
      "type": "event"
    },
    {
      "anonymous": false,
      "inputs": [
        {
          "indexed": true,
          "internalType": "address",
          "name": "previousOwner",
          "type": "address"
        },
        {
          "indexed": true,
          "internalType": "address",
          "name": "newOwner",
          "type": "address"
        }
      ],
      "name": "OwnershipTransferred",
      "type": "event"
    },
    {
      "anonymous": false,
      "inputs": [
        {
          "indexed": false,
          "internalType": "uint256",
          "name": "proposalId",
          "type": "uint256"
        },
        {
          "indexed": false,
          "internalType": "bool",
          "name": "success",
          "type": "bool"
        }
      ],
      "name": "ProposalApproved",
      "type": "event"
    },
    {
      "inputs": [
        {
          "internalType": "address",
          "name": "",
          "type": "address"
        }
      ],
      "name": "burners",
      "outputs": [
        {
          "internalType": "bool",
          "name": "",
          "type": "bool"
        }
      ],
      "stateMutability": "view",
      "type": "function"
    },
    {
      "inputs": [],
      "name": "dScore",
      "outputs": [
        {
          "internalType": "contract IDScore",
          "name": "",
          "type": "address"
        }
      ],
      "stateMutability": "view",
      "type": "function"
    },
    {
      "inputs": [
        {
          "internalType": "address",
          "name": "",
          "type": "address"
        }
      ],
      "name": "dScoreMod",
      "outputs": [
        {
          "internalType": "bool",
          "name": "",
          "type": "bool"
        }
      ],
      "stateMutability": "view",
      "type": "function"
    },
    {
      "inputs": [],
      "name": "dd",
      "outputs": [
        {
          "internalType": "contract IDecentraDollar",
          "name": "",
          "type": "address"
        }
      ],
      "stateMutability": "view",
      "type": "function"
    },
    {
      "inputs": [],
      "name": "ds",
      "outputs": [
        {
          "internalType": "contract IDecentraStock",
          "name": "",
          "type": "address"
        }
      ],
      "stateMutability": "view",
      "type": "function"
    },
    {
      "inputs": [
        {
          "internalType": "address",
          "name": "",
          "type": "address"
        }
      ],
      "name": "freezeFrame",
      "outputs": [
        {
          "internalType": "uint256",
          "name": "",
          "type": "uint256"
        }
      ],
      "stateMutability": "view",
      "type": "function"
    },
    {
      "inputs": [
        {
          "internalType": "address",
          "name": "_member",
          "type": "address"
        }
      ],
      "name": "freezeMember",
      "outputs": [],
      "stateMutability": "nonpayable",
      "type": "function"
    },
    {
      "inputs": [
        {
          "internalType": "address",
          "name": "",
          "type": "address"
        }
      ],
      "name": "frozenAccounts",
      "outputs": [
        {
          "internalType": "bool",
          "name": "",
          "type": "bool"
        }
      ],
      "stateMutability": "view",
      "type": "function"
    },
    {
      "inputs": [
        {
          "internalType": "uint256",
          "name": "_id",
          "type": "uint256"
        }
      ],
      "name": "getProposal",
      "outputs": [
        {
          "internalType": "address",
          "name": "maker",
          "type": "address"
        },
        {
          "internalType": "address",
          "name": "target",
          "type": "address"
        },
        {
          "internalType": "uint256",
          "name": "voteWeights",
          "type": "uint256"
        },
        {
          "internalType": "uint256",
          "name": "voteID",
          "type": "uint256"
        },
        {
          "internalType": "uint256",
          "name": "timeCreated",
          "type": "uint256"
        },
        {
          "internalType": "bool",
          "name": "executed",
          "type": "bool"
        },
        {
          "internalType": "string",
          "name": "proposalHash",
          "type": "string"
        },
        {
          "internalType": "bytes",
          "name": "call_data",
          "type": "bytes"
        }
      ],
      "stateMutability": "view",
      "type": "function"
    },
    {
      "inputs": [
        {
          "internalType": "address",
          "name": "",
          "type": "address"
        }
      ],
      "name": "minters",
      "outputs": [
        {
          "internalType": "bool",
          "name": "",
          "type": "bool"
        }
      ],
      "stateMutability": "view",
      "type": "function"
    },
    {
      "inputs": [
        {
          "internalType": "address payable",
          "name": "_target",
          "type": "address"
        },
        {
          "internalType": "string",
          "name": "_proposalHash",
          "type": "string"
        },
        {
          "internalType": "bytes",
          "name": "_calldata",
          "type": "bytes"
        }
      ],
      "name": "newProposal",
      "outputs": [
        {
          "internalType": "uint256",
          "name": "",
          "type": "uint256"
        }
      ],
      "stateMutability": "payable",
      "type": "function"
    },
    {
      "inputs": [],
      "name": "owner",
      "outputs": [
        {
          "internalType": "address",
          "name": "",
          "type": "address"
        }
      ],
      "stateMutability": "view",
      "type": "function"
    },
    {
      "inputs": [],
      "name": "proposalID",
      "outputs": [
        {
          "internalType": "uint256",
          "name": "",
          "type": "uint256"
        }
      ],
      "stateMutability": "view",
      "type": "function"
    },
    {
      "inputs": [],
      "name": "proposalTime",
      "outputs": [
        {
          "internalType": "uint256",
          "name": "",
          "type": "uint256"
        }
      ],
      "stateMutability": "view",
      "type": "function"
    },
    {
      "inputs": [
        {
          "internalType": "uint256",
          "name": "",
          "type": "uint256"
        }
      ],
      "name": "proposals",
      "outputs": [
        {
          "internalType": "address",
          "name": "maker",
          "type": "address"
        },
        {
          "internalType": "address payable",
          "name": "target",
          "type": "address"
        },
        {
          "internalType": "uint256",
          "name": "timeCreated",
          "type": "uint256"
        },
        {
          "internalType": "uint256",
          "name": "voteWeights",
          "type": "uint256"
        },
        {
          "internalType": "uint256",
          "name": "voteID",
          "type": "uint256"
        },
        {
          "internalType": "bool",
          "name": "executed",
          "type": "bool"
        },
        {
          "internalType": "bool",
          "name": "proposalPassed",
          "type": "bool"
        },
        {
          "internalType": "string",
          "name": "proposalHash",
          "type": "string"
        },
        {
          "internalType": "bytes",
          "name": "call_data",
          "type": "bytes"
        }
      ],
      "stateMutability": "view",
      "type": "function"
    },
    {
      "inputs": [
        {
          "internalType": "address",
          "name": "_from",
          "type": "address"
        },
        {
          "internalType": "uint256",
          "name": "_amount",
          "type": "uint256"
        }
      ],
      "name": "proxyBurnDD",
      "outputs": [],
      "stateMutability": "nonpayable",
      "type": "function"
    },
    {
      "inputs": [
        {
          "internalType": "address",
          "name": "_from",
          "type": "address"
        },
        {
          "internalType": "uint256",
          "name": "_amount",
          "type": "uint256"
        }
      ],
      "name": "proxyBurnDS",
      "outputs": [],
      "stateMutability": "nonpayable",
      "type": "function"
    },
    {
      "inputs": [
        {
          "internalType": "address",
          "name": "_to",
          "type": "address"
        },
        {
          "internalType": "uint256",
          "name": "_amount",
          "type": "uint256"
        }
      ],
      "name": "proxyMintDD",
      "outputs": [],
      "stateMutability": "nonpayable",
      "type": "function"
    },
    {
      "inputs": [
        {
          "internalType": "address",
          "name": "_to",
          "type": "address"
        },
        {
          "internalType": "uint256",
          "name": "_amount",
          "type": "uint256"
        }
      ],
      "name": "proxyMintDS",
      "outputs": [],
      "stateMutability": "nonpayable",
      "type": "function"
    },
    {
      "inputs": [],
      "name": "quorum",
      "outputs": [
        {
          "internalType": "uint256",
          "name": "",
          "type": "uint256"
        }
      ],
      "stateMutability": "view",
      "type": "function"
    },
    {
      "inputs": [],
      "name": "renounceOwnership",
      "outputs": [],
      "stateMutability": "nonpayable",
      "type": "function"
    },
    {
      "inputs": [
        {
          "internalType": "address",
          "name": "_contract",
          "type": "address"
        },
        {
          "internalType": "uint256",
          "name": "_privledge",
          "type": "uint256"
        }
      ],
      "name": "setApprovedContract",
      "outputs": [],
      "stateMutability": "nonpayable",
      "type": "function"
    },
    {
      "inputs": [
        {
          "internalType": "uint256",
          "name": "_quorum",
          "type": "uint256"
        }
      ],
      "name": "setQuorum",
      "outputs": [],
      "stateMutability": "nonpayable",
      "type": "function"
    },
    {
      "inputs": [
        {
          "internalType": "address",
          "name": "newOwner",
          "type": "address"
        }
      ],
      "name": "transferOwnership",
      "outputs": [],
      "stateMutability": "nonpayable",
      "type": "function"
    },
    {
      "inputs": [
        {
          "internalType": "address payable",
          "name": "_to",
          "type": "address"
        },
        {
          "internalType": "uint256",
          "name": "_amount",
          "type": "uint256"
        }
      ],
      "name": "transferxDAI",
      "outputs": [],
      "stateMutability": "nonpayable",
      "type": "function"
    },
    {
      "inputs": [
        {
          "internalType": "uint256",
          "name": "_ProposalID",
          "type": "uint256"
        },
        {
          "internalType": "bool",
          "name": "supportsProposal",
          "type": "bool"
        }
      ],
      "name": "vote",
      "outputs": [],
      "stateMutability": "nonpayable",
      "type": "function"
    }
  ],
  "bytecode": "0x60806040523480156200001157600080fd5b5060405162003710380380620037108339818101604052810190620000379190620001dc565b600062000049620001bd60201b60201c565b9050806000806101000a81548173ffffffffffffffffffffffffffffffffffffffff021916908373ffffffffffffffffffffffffffffffffffffffff1602179055508073ffffffffffffffffffffffffffffffffffffffff16600073ffffffffffffffffffffffffffffffffffffffff167f8be0079c531659141344cd1fd0a4f28419497f9722a3daafe3b4186f6b6457e060405160405180910390a35082600460006101000a81548173ffffffffffffffffffffffffffffffffffffffff021916908373ffffffffffffffffffffffffffffffffffffffff16021790555081600560006101000a81548173ffffffffffffffffffffffffffffffffffffffff021916908373ffffffffffffffffffffffffffffffffffffffff16021790555080600660006101000a81548173ffffffffffffffffffffffffffffffffffffffff021916908373ffffffffffffffffffffffffffffffffffffffff16021790555062093a8060028190555050505062000280565b600033905090565b600081519050620001d68162000266565b92915050565b600080600060608486031215620001f257600080fd5b60006200020286828701620001c5565b93505060206200021586828701620001c5565b92505060406200022886828701620001c5565b9150509250925092565b60006200023f8262000246565b9050919050565b600073ffffffffffffffffffffffffffffffffffffffff82169050919050565b620002718162000232565b81146200027d57600080fd5b50565b61348080620002906000396000f3fe6080604052600436106101815760003560e01c806383ac74f9116100d1578063c1ba4e591161008a578063c9d27afe11610064578063c9d27afe14610596578063d7c93180146105bf578063f2fde38b146105e8578063f46eccc41461061157610181565b8063c1ba4e59146104ec578063c3396bdc14610515578063c7f758a81461055257610181565b806383ac74f9146103d7578063860838a5146104005780638da5cb5b1461043d5780639c94f65114610468578063a120c14f14610491578063c079c0c3146104bc57610181565b8063371fa8541161013e5780636122698f116101185780636122698f14610343578063715018a61461036e5780637563dd541461038557806382f4f5b4146103ae57610181565b8063371fa854146102b25780633e410717146102dd57806351bcc28b1461030657610181565b8063013cf08b1461018657806303d41e0e146101cb5780631268b7d2146102085780631703a01814610231578063184a0ae91461025c57806330dce62b14610287575b600080fd5b34801561019257600080fd5b506101ad60048036038101906101a891906125e9565b61064e565b6040516101c299989796959493929190612b3e565b60405180910390f35b3480156101d757600080fd5b506101f260048036038101906101ed91906124a0565b610806565b6040516101ff9190612c8e565b60405180910390f35b34801561021457600080fd5b5061022f600480360381019061022a9190612584565b610826565b005b34801561023d57600080fd5b50610246610a1b565b6040516102539190612e1a565b60405180910390f35b34801561026857600080fd5b50610271610a21565b60405161027e9190612e1a565b60405180910390f35b34801561029357600080fd5b5061029c610a27565b6040516102a99190612cdf565b60405180910390f35b3480156102be57600080fd5b506102c7610a4d565b6040516102d49190612e1a565b60405180910390f35b3480156102e957600080fd5b5061030460048036038101906102ff91906124a0565b610a53565b005b34801561031257600080fd5b5061032d600480360381019061032891906124a0565b610c1e565b60405161033a9190612c8e565b60405180910390f35b34801561034f57600080fd5b50610358610c3e565b6040516103659190612ca9565b60405180910390f35b34801561037a57600080fd5b50610383610c64565b005b34801561039157600080fd5b506103ac60048036038101906103a79190612548565b610d9e565b005b3480156103ba57600080fd5b506103d560048036038101906103d09190612584565b610e65565b005b3480156103e357600080fd5b506103fe60048036038101906103f99190612584565b610f84565b005b34801561040c57600080fd5b50610427600480360381019061042291906124a0565b6110a3565b6040516104349190612c8e565b60405180910390f35b34801561044957600080fd5b506104526110c3565b60405161045f9190612af3565b60405180910390f35b34801561047457600080fd5b5061048f600480360381019061048a9190612584565b6110ec565b005b34801561049d57600080fd5b506104a661120b565b6040516104b39190612cc4565b60405180910390f35b6104d660048036038101906104d191906124c9565b611231565b6040516104e39190612e1a565b60405180910390f35b3480156104f857600080fd5b50610513600480360381019061050e91906125e9565b611430565b005b34801561052157600080fd5b5061053c600480360381019061053791906124a0565b6114b6565b6040516105499190612e1a565b60405180910390f35b34801561055e57600080fd5b50610579600480360381019061057491906125e9565b6114ce565b60405161058d989796959493929190612bd9565b60405180910390f35b3480156105a257600080fd5b506105bd60048036038101906105b8919061263b565b611692565b005b3480156105cb57600080fd5b506105e660048036038101906105e19190612584565b611b00565b005b3480156105f457600080fd5b5061060f600480360381019061060a91906124a0565b611c1f565b005b34801561061d57600080fd5b50610638600480360381019061063391906124a0565b611dc8565b6040516106459190612c8e565b60405180910390f35b60096020528060005260406000206000915090508060000160009054906101000a900473ffffffffffffffffffffffffffffffffffffffff16908060010160009054906101000a900473ffffffffffffffffffffffffffffffffffffffff16908060020154908060030154908060040154908060050160009054906101000a900460ff16908060050160019054906101000a900460ff16908060060180546106f590613299565b80601f016020809104026020016040519081016040528092919081815260200182805461072190613299565b801561076e5780601f106107435761010080835404028352916020019161076e565b820191906000526020600020905b81548152906001019060200180831161075157829003601f168201915b50505050509080600701805461078390613299565b80601f01602080910402602001604051908101604052809291908181526020018280546107af90613299565b80156107fc5780601f106107d1576101008083540402835291602001916107fc565b820191906000526020600020905b8154815290600101906020018083116107df57829003601f168201915b5050505050905089565b600b6020528060005260406000206000915054906101000a900460ff1681565b61082e611de8565b73ffffffffffffffffffffffffffffffffffffffff1661084c6110c3565b73ffffffffffffffffffffffffffffffffffffffff16146108a2576040517f08c379a000000000000000000000000000000000000000000000000000000000815260040161089990612dba565b60405180910390fd5b6000811180156108b25750600481105b6108f1576040517f08c379a00000000000000000000000000000000000000000000000000000000081526004016108e890612d7a565b60405180910390fd5b6001811415610953576001600a60008473ffffffffffffffffffffffffffffffffffffffff1673ffffffffffffffffffffffffffffffffffffffff16815260200190815260200160002060006101000a81548160ff0219169083151502179055505b60028114156109b5576001600b60008473ffffffffffffffffffffffffffffffffffffffff1673ffffffffffffffffffffffffffffffffffffffff16815260200190815260200160002060006101000a81548160ff0219169083151502179055505b6003811415610a17576001600c60008473ffffffffffffffffffffffffffffffffffffffff1673ffffffffffffffffffffffffffffffffffffffff16815260200190815260200160002060006101000a81548160ff0219169083151502179055505b5050565b60035481565b60025481565b600560009054906101000a900473ffffffffffffffffffffffffffffffffffffffff1681565b60015481565b610a5b611de8565b73ffffffffffffffffffffffffffffffffffffffff16610a796110c3565b73ffffffffffffffffffffffffffffffffffffffff1614610acf576040517f08c379a0000000000000000000000000000000000000000000000000000000008152600401610ac690612dba565b60405180910390fd5b600760008273ffffffffffffffffffffffffffffffffffffffff1673ffffffffffffffffffffffffffffffffffffffff16815260200190815260200160002060009054906101000a900460ff1615610b7e576000600760008373ffffffffffffffffffffffffffffffffffffffff1673ffffffffffffffffffffffffffffffffffffffff16815260200190815260200160002060006101000a81548160ff021916908315150217905550610c1b565b6001600760008373ffffffffffffffffffffffffffffffffffffffff1673ffffffffffffffffffffffffffffffffffffffff16815260200190815260200160002060006101000a81548160ff02191690831515021790555042600860008373ffffffffffffffffffffffffffffffffffffffff1673ffffffffffffffffffffffffffffffffffffffff168152602001908152602001600020819055505b50565b600c6020528060005260406000206000915054906101000a900460ff1681565b600660009054906101000a900473ffffffffffffffffffffffffffffffffffffffff1681565b610c6c611de8565b73ffffffffffffffffffffffffffffffffffffffff16610c8a6110c3565b73ffffffffffffffffffffffffffffffffffffffff1614610ce0576040517f08c379a0000000000000000000000000000000000000000000000000000000008152600401610cd790612dba565b60405180910390fd5b600073ffffffffffffffffffffffffffffffffffffffff1660008054906101000a900473ffffffffffffffffffffffffffffffffffffffff1673ffffffffffffffffffffffffffffffffffffffff167f8be0079c531659141344cd1fd0a4f28419497f9722a3daafe3b4186f6b6457e060405160405180910390a360008060006101000a81548173ffffffffffffffffffffffffffffffffffffffff021916908373ffffffffffffffffffffffffffffffffffffffff160217905550565b610da6611de8565b73ffffffffffffffffffffffffffffffffffffffff16610dc46110c3565b73ffffffffffffffffffffffffffffffffffffffff1614610e1a576040517f08c379a0000000000000000000000000000000000000000000000000000000008152600401610e1190612dba565b60405180910390fd5b8173ffffffffffffffffffffffffffffffffffffffff166108fc829081150290604051600060405180830381858888f19350505050158015610e60573d6000803e3d6000fd5b505050565b600a60003373ffffffffffffffffffffffffffffffffffffffff1673ffffffffffffffffffffffffffffffffffffffff16815260200190815260200160002060009054906101000a900460ff16610ef1576040517f08c379a0000000000000000000000000000000000000000000000000000000008152600401610ee890612d1a565b60405180910390fd5b600560009054906101000a900473ffffffffffffffffffffffffffffffffffffffff1673ffffffffffffffffffffffffffffffffffffffff16638896637e83836040518363ffffffff1660e01b8152600401610f4e929190612c65565b600060405180830381600087803b158015610f6857600080fd5b505af1158015610f7c573d6000803e3d6000fd5b505050505050565b600a60003373ffffffffffffffffffffffffffffffffffffffff1673ffffffffffffffffffffffffffffffffffffffff16815260200190815260200160002060009054906101000a900460ff16611010576040517f08c379a000000000000000000000000000000000000000000000000000000000815260040161100790612d1a565b60405180910390fd5b600460009054906101000a900473ffffffffffffffffffffffffffffffffffffffff1673ffffffffffffffffffffffffffffffffffffffff16637daf440d83836040518363ffffffff1660e01b815260040161106d929190612c65565b600060405180830381600087803b15801561108757600080fd5b505af115801561109b573d6000803e3d6000fd5b505050505050565b60076020528060005260406000206000915054906101000a900460ff1681565b60008060009054906101000a900473ffffffffffffffffffffffffffffffffffffffff16905090565b600b60003373ffffffffffffffffffffffffffffffffffffffff1673ffffffffffffffffffffffffffffffffffffffff16815260200190815260200160002060009054906101000a900460ff16611178576040517f08c379a000000000000000000000000000000000000000000000000000000000815260040161116f90612d9a565b60405180910390fd5b600560009054906101000a900473ffffffffffffffffffffffffffffffffffffffff1673ffffffffffffffffffffffffffffffffffffffff16637468b9ba83836040518363ffffffff1660e01b81526004016111d5929190612c65565b600060405180830381600087803b1580156111ef57600080fd5b505af1158015611203573d6000803e3d6000fd5b505050505050565b600460009054906101000a900473ffffffffffffffffffffffffffffffffffffffff1681565b6000600660009054906101000a900473ffffffffffffffffffffffffffffffffffffffff1673ffffffffffffffffffffffffffffffffffffffff1663247f8e14336040518263ffffffff1660e01b815260040161128e9190612af3565b60206040518083038186803b1580156112a657600080fd5b505afa1580156112ba573d6000803e3d6000fd5b505050506040513d601f19601f820116820180604052508101906112de91906125c0565b61131d576040517f08c379a000000000000000000000000000000000000000000000000000000000815260040161131490612d5a565b60405180910390fd5b60016000815480929190611330906132cb565b919050555060006009600060015481526020019081526020016000209050338160000160006101000a81548173ffffffffffffffffffffffffffffffffffffffff021916908373ffffffffffffffffffffffffffffffffffffffff160217905550848160010160006101000a81548173ffffffffffffffffffffffffffffffffffffffff021916908373ffffffffffffffffffffffffffffffffffffffff160217905550600081600301819055506000816004018190555042816002018190555083816006019080519060200190611409929190612229565b50828160070190805190602001906114229291906122af565b506001549150509392505050565b611438611de8565b73ffffffffffffffffffffffffffffffffffffffff166114566110c3565b73ffffffffffffffffffffffffffffffffffffffff16146114ac576040517f08c379a00000000000000000000000000000000000000000000000000000000081526004016114a390612dba565b60405180910390fd5b8060038190555050565b60086020528060005260406000206000915090505481565b6000806000806000806060806000600960008b815260200190815260200160002090508060000160009054906101000a900473ffffffffffffffffffffffffffffffffffffffff1698508060010160009054906101000a900473ffffffffffffffffffffffffffffffffffffffff1697508060030154965080600401549550806002015494508060050160009054906101000a900460ff16935080600601805461157790613299565b80601f01602080910402602001604051908101604052809291908181526020018280546115a390613299565b80156115f05780601f106115c5576101008083540402835291602001916115f0565b820191906000526020600020905b8154815290600101906020018083116115d357829003601f168201915b5050505050925080600701805461160690613299565b80601f016020809104026020016040519081016040528092919081815260200182805461163290613299565b801561167f5780601f106116545761010080835404028352916020019161167f565b820191906000526020600020905b81548152906001019060200180831161166257829003601f168201915b5050505050915050919395975091939597565b600660009054906101000a900473ffffffffffffffffffffffffffffffffffffffff1673ffffffffffffffffffffffffffffffffffffffff1663247f8e14336040518263ffffffff1660e01b81526004016116ed9190612af3565b60206040518083038186803b15801561170557600080fd5b505afa158015611719573d6000803e3d6000fd5b505050506040513d601f19601f8201168201806040525081019061173d91906125c0565b61177c576040517f08c379a000000000000000000000000000000000000000000000000000000000815260040161177390612d5a565b60405180910390fd5b6000600960008481526020019081526020016000209050600115158160090160003373ffffffffffffffffffffffffffffffffffffffff1673ffffffffffffffffffffffffffffffffffffffff16815260200190815260200160002060009054906101000a900460ff1615151415611829576040517f08c379a000000000000000000000000000000000000000000000000000000000815260040161182090612dda565b60405180910390fd5b6000600660009054906101000a900473ffffffffffffffffffffffffffffffffffffffff1673ffffffffffffffffffffffffffffffffffffffff166359d177e6336040518263ffffffff1660e01b81526004016118869190612af3565b60206040518083038186803b15801561189e57600080fd5b505afa1580156118b2573d6000803e3d6000fd5b505050506040513d601f19601f820116820180604052508101906118d69190612612565b90508160040160008154809291906118ed906132cb565b919050558260040181905550604051806060016040528084151581526020013373ffffffffffffffffffffffffffffffffffffffff168152602001828152508260080160008460040154815260200190815260200160002060008201518160000160006101000a81548160ff02191690831515021790555060208201518160000160016101000a81548173ffffffffffffffffffffffffffffffffffffffff021916908373ffffffffffffffffffffffffffffffffffffffff160217905550604082015181600101559050506119d0818360030154611df090919063ffffffff16565b826003018190555060018260090160003373ffffffffffffffffffffffffffffffffffffffff1673ffffffffffffffffffffffffffffffffffffffff16815260200190815260200160002060006101000a81548160ff0219169083151502179055506000600560009054906101000a900473ffffffffffffffffffffffffffffffffffffffff1673ffffffffffffffffffffffffffffffffffffffff166318160ddd6040518163ffffffff1660e01b815260040160206040518083038186803b158015611a9c57600080fd5b505afa158015611ab0573d6000803e3d6000fd5b505050506040513d601f19601f82011682018060405250810190611ad49190612612565b90506000611ae6846003015483611e06565b90508015611af857611af786611e48565b5b505050505050565b600b60003373ffffffffffffffffffffffffffffffffffffffff1673ffffffffffffffffffffffffffffffffffffffff16815260200190815260200160002060009054906101000a900460ff16611b8c576040517f08c379a0000000000000000000000000000000000000000000000000000000008152600401611b8390612d9a565b60405180910390fd5b600460009054906101000a900473ffffffffffffffffffffffffffffffffffffffff1673ffffffffffffffffffffffffffffffffffffffff1663eb97781583836040518363ffffffff1660e01b8152600401611be9929190612c65565b600060405180830381600087803b158015611c0357600080fd5b505af1158015611c17573d6000803e3d6000fd5b505050505050565b611c27611de8565b73ffffffffffffffffffffffffffffffffffffffff16611c456110c3565b73ffffffffffffffffffffffffffffffffffffffff1614611c9b576040517f08c379a0000000000000000000000000000000000000000000000000000000008152600401611c9290612dba565b60405180910390fd5b600073ffffffffffffffffffffffffffffffffffffffff168173ffffffffffffffffffffffffffffffffffffffff161415611d0b576040517f08c379a0000000000000000000000000000000000000000000000000000000008152600401611d0290612d3a565b60405180910390fd5b8073ffffffffffffffffffffffffffffffffffffffff1660008054906101000a900473ffffffffffffffffffffffffffffffffffffffff1673ffffffffffffffffffffffffffffffffffffffff167f8be0079c531659141344cd1fd0a4f28419497f9722a3daafe3b4186f6b6457e060405160405180910390a3806000806101000a81548173ffffffffffffffffffffffffffffffffffffffff021916908373ffffffffffffffffffffffffffffffffffffffff16021790555050565b600a6020528060005260406000206000915054906101000a900460ff1681565b600033905090565b60008183611dfe9190612f09565b905092915050565b600080611e15848460026120de565b905082841415611e29576001915050611e42565b6003548110611e3c576001915050611e42565b60009150505b92915050565b6000600960008381526020019081526020016000209050611e786002548260020154611df090919063ffffffff16565b4210611ebd5760018160050160006101000a81548160ff02191690831515021790555060008160050160016101000a81548160ff0219169083151502179055506120da565b8060050160009054906101000a900460ff1615611f0f576040517f08c379a0000000000000000000000000000000000000000000000000000000008152600401611f0690612dfa565b60405180910390fd5b60008060005b83600401548111611f9a57600084600801600083815260200190815260200160002090508060000160009054906101000a900460ff1615611f6e57611f67816001015485611df090919063ffffffff16565b9350611f88565b611f85816001015484611df090919063ffffffff16565b92505b5080611f93906132cb565b9050611f15565b508082111561209c5761205d8360010160009054906101000a900473ffffffffffffffffffffffffffffffffffffffff16846007018054611fda90613299565b80601f016020809104026020016040519081016040528092919081815260200182805461200690613299565b80156120535780601f1061202857610100808354040283529160200191612053565b820191906000526020600020905b81548152906001019060200180831161203657829003601f168201915b505050505061213b565b60018360050160006101000a81548160ff02191690831515021790555060018360050160016101000a81548160ff0219169083151502179055506120d7565b60018360050160006101000a81548160ff02191690831515021790555060008360050160016101000a81548160ff0219169083151502179055505b50505b5050565b6000806001836120ee9190612f09565b600a6120fa9190612fe3565b856121059190613101565b90506000600a600586846121199190612f5f565b6121239190612f09565b61212d9190612f5f565b905080925050509392505050565b6000808373ffffffffffffffffffffffffffffffffffffffff16836040516121639190612adc565b6000604051808303816000865af19150503d80600081146121a0576040519150601f19603f3d011682016040523d82523d6000602084013e6121a5565b606091505b5091509150816121ea576040517f08c379a00000000000000000000000000000000000000000000000000000000081526004016121e190612cfa565b60405180910390fd5b7f0d655f469da3540d6d1544bc544b2b76944af903f3df556b9666822dbebc85f5848260405161221b929190612b0e565b60405180910390a150505050565b82805461223590613299565b90600052602060002090601f016020900481019282612257576000855561229e565b82601f1061227057805160ff191683800117855561229e565b8280016001018555821561229e579182015b8281111561229d578251825591602001919060010190612282565b5b5090506122ab9190612335565b5090565b8280546122bb90613299565b90600052602060002090601f0160209004810192826122dd5760008555612324565b82601f106122f657805160ff1916838001178555612324565b82800160010185558215612324579182015b82811115612323578251825591602001919060010190612308565b5b5090506123319190612335565b5090565b5b8082111561234e576000816000905550600101612336565b5090565b600061236561236084612e66565b612e35565b90508281526020810184848401111561237d57600080fd5b612388848285613257565b509392505050565b60006123a361239e84612e96565b612e35565b9050828152602081018484840111156123bb57600080fd5b6123c6848285613257565b509392505050565b6000813590506123dd816133ee565b92915050565b6000813590506123f281613405565b92915050565b6000813590506124078161341c565b92915050565b60008151905061241c8161341c565b92915050565b600082601f83011261243357600080fd5b8135612443848260208601612352565b91505092915050565b600082601f83011261245d57600080fd5b813561246d848260208601612390565b91505092915050565b60008135905061248581613433565b92915050565b60008151905061249a81613433565b92915050565b6000602082840312156124b257600080fd5b60006124c0848285016123ce565b91505092915050565b6000806000606084860312156124de57600080fd5b60006124ec868287016123e3565b935050602084013567ffffffffffffffff81111561250957600080fd5b6125158682870161244c565b925050604084013567ffffffffffffffff81111561253257600080fd5b61253e86828701612422565b9150509250925092565b6000806040838503121561255b57600080fd5b6000612569858286016123e3565b925050602061257a85828601612476565b9150509250929050565b6000806040838503121561259757600080fd5b60006125a5858286016123ce565b92505060206125b685828601612476565b9150509250929050565b6000602082840312156125d257600080fd5b60006125e08482850161240d565b91505092915050565b6000602082840312156125fb57600080fd5b600061260984828501612476565b91505092915050565b60006020828403121561262457600080fd5b60006126328482850161248b565b91505092915050565b6000806040838503121561264e57600080fd5b600061265c85828601612476565b925050602061266d858286016123f8565b9150509250929050565b612680816131b5565b82525050565b61268f8161316d565b82525050565b61269e8161315b565b82525050565b6126ad8161317f565b82525050565b60006126be82612ec6565b6126c88185612edc565b93506126d8818560208601613266565b6126e1816133d0565b840191505092915050565b60006126f782612ec6565b6127018185612eed565b9350612711818560208601613266565b80840191505092915050565b612726816131c7565b82525050565b612735816131eb565b82525050565b6127448161320f565b82525050565b600061275582612ed1565b61275f8185612ef8565b935061276f818560208601613266565b612778816133d0565b840191505092915050565b6000612790601b83612ef8565b91507f64656c656761746546756e6374696f6e43616c6c204661696c656400000000006000830152602082019050919050565b60006127d0602483612ef8565b91507f446563656e747261436f72653a2043616c6c6572206973206e6f742061206d6960008301527f6e746572000000000000000000000000000000000000000000000000000000006020830152604082019050919050565b6000612836602683612ef8565b91507f4f776e61626c653a206e6577206f776e657220697320746865207a65726f206160008301527f64647265737300000000000000000000000000000000000000000000000000006020830152604082019050919050565b600061289c602c83612ef8565b91507f446563656e747261436f72653a2043616c6c6572206973206e6f7420616e206160008301527f6374697665206d656d62657200000000000000000000000000000000000000006020830152604082019050919050565b6000612902602583612ef8565b91507f446563656e747261436f72653a20496e76616c696420496e707574205072697660008301527f6c656467650000000000000000000000000000000000000000000000000000006020830152604082019050919050565b6000612968602483612ef8565b91507f446563656e747261436f72653a2043616c6c6572206973206e6f74206120627560008301527f726e6572000000000000000000000000000000000000000000000000000000006020830152604082019050919050565b60006129ce602083612ef8565b91507f4f776e61626c653a2063616c6c6572206973206e6f7420746865206f776e65726000830152602082019050919050565b6000612a0e602783612ef8565b91507f596f75204861766520616c726561647920766f746564206f6e2074686973207060008301527f726f706f73616c000000000000000000000000000000000000000000000000006020830152604082019050919050565b6000612a74602783612ef8565b91507f546869732070726f706f73616c2068617320616c7265616479206265656e206560008301527f78656375746564000000000000000000000000000000000000000000000000006020830152604082019050919050565b612ad6816131ab565b82525050565b6000612ae882846126ec565b915081905092915050565b6000602082019050612b086000830184612695565b92915050565b6000604082019050612b236000830185612677565b8181036020830152612b3581846126b3565b90509392505050565b600061012082019050612b54600083018c612695565b612b61602083018b612686565b612b6e604083018a612acd565b612b7b6060830189612acd565b612b886080830188612acd565b612b9560a08301876126a4565b612ba260c08301866126a4565b81810360e0830152612bb4818561274a565b9050818103610100830152612bc981846126b3565b90509a9950505050505050505050565b600061010082019050612bef600083018b612695565b612bfc602083018a612695565b612c096040830189612acd565b612c166060830188612acd565b612c236080830187612acd565b612c3060a08301866126a4565b81810360c0830152612c42818561274a565b905081810360e0830152612c5681846126b3565b90509998505050505050505050565b6000604082019050612c7a6000830185612695565b612c876020830184612acd565b9392505050565b6000602082019050612ca360008301846126a4565b92915050565b6000602082019050612cbe600083018461271d565b92915050565b6000602082019050612cd9600083018461272c565b92915050565b6000602082019050612cf4600083018461273b565b92915050565b60006020820190508181036000830152612d1381612783565b9050919050565b60006020820190508181036000830152612d33816127c3565b9050919050565b60006020820190508181036000830152612d5381612829565b9050919050565b60006020820190508181036000830152612d738161288f565b9050919050565b60006020820190508181036000830152612d93816128f5565b9050919050565b60006020820190508181036000830152612db38161295b565b9050919050565b60006020820190508181036000830152612dd3816129c1565b9050919050565b60006020820190508181036000830152612df381612a01565b9050919050565b60006020820190508181036000830152612e1381612a67565b9050919050565b6000602082019050612e2f6000830184612acd565b92915050565b6000604051905081810181811067ffffffffffffffff82111715612e5c57612e5b6133a1565b5b8060405250919050565b600067ffffffffffffffff821115612e8157612e806133a1565b5b601f19601f8301169050602081019050919050565b600067ffffffffffffffff821115612eb157612eb06133a1565b5b601f19601f8301169050602081019050919050565b600081519050919050565b600081519050919050565b600082825260208201905092915050565b600081905092915050565b600082825260208201905092915050565b6000612f14826131ab565b9150612f1f836131ab565b9250827fffffffffffffffffffffffffffffffffffffffffffffffffffffffffffffffff03821115612f5457612f53613314565b5b828201905092915050565b6000612f6a826131ab565b9150612f75836131ab565b925082612f8557612f84613343565b5b828204905092915050565b6000808291508390505b6001851115612fda57808604811115612fb657612fb5613314565b5b6001851615612fc55780820291505b8081029050612fd3856133e1565b9450612f9a565b94509492505050565b6000612fee826131ab565b9150612ff9836131ab565b92506130267fffffffffffffffffffffffffffffffffffffffffffffffffffffffffffffffff848461302e565b905092915050565b60008261303e57600190506130fa565b8161304c57600090506130fa565b8160018114613062576002811461306c5761309b565b60019150506130fa565b60ff84111561307e5761307d613314565b5b8360020a91508482111561309557613094613314565b5b506130fa565b5060208310610133831016604e8410600b84101617156130d05782820a9050838111156130cb576130ca613314565b5b6130fa565b6130dd8484846001612f90565b925090508184048111156130f4576130f3613314565b5b81810290505b9392505050565b600061310c826131ab565b9150613117836131ab565b9250817fffffffffffffffffffffffffffffffffffffffffffffffffffffffffffffffff04831182151516156131505761314f613314565b5b828202905092915050565b60006131668261318b565b9050919050565b60006131788261318b565b9050919050565b60008115159050919050565b600073ffffffffffffffffffffffffffffffffffffffff82169050919050565b6000819050919050565b60006131c082613233565b9050919050565b60006131d2826131d9565b9050919050565b60006131e48261318b565b9050919050565b60006131f6826131fd565b9050919050565b60006132088261318b565b9050919050565b600061321a82613221565b9050919050565b600061322c8261318b565b9050919050565b600061323e82613245565b9050919050565b60006132508261318b565b9050919050565b82818337600083830152505050565b60005b83811015613284578082015181840152602081019050613269565b83811115613293576000848401525b50505050565b600060028204905060018216806132b157607f821691505b602082108114156132c5576132c4613372565b5b50919050565b60006132d6826131ab565b91507fffffffffffffffffffffffffffffffffffffffffffffffffffffffffffffffff82141561330957613308613314565b5b600182019050919050565b7f4e487b7100000000000000000000000000000000000000000000000000000000600052601160045260246000fd5b7f4e487b7100000000000000000000000000000000000000000000000000000000600052601260045260246000fd5b7f4e487b7100000000000000000000000000000000000000000000000000000000600052602260045260246000fd5b7f4e487b7100000000000000000000000000000000000000000000000000000000600052604160045260246000fd5b6000601f19601f8301169050919050565b60008160011c9050919050565b6133f78161315b565b811461340257600080fd5b50565b61340e8161316d565b811461341957600080fd5b50565b6134258161317f565b811461343057600080fd5b50565b61343c816131ab565b811461344757600080fd5b5056fea26469706673582212203372bb62c0a70d8fc1a424a1068a851f15d5541b3d846eb9bc3af84e6bc3eecf64736f6c63430008000033",
  "linkReferences": {},
  "deployedLinkReferences": {}
}