{
  "_format": "hh-sol-artifact-1",
  "contractName": "DecentraBank",
  "sourceName": "contracts/DecentraBank.sol",
  "abi": [
    {
      "inputs": [
        {
          "internalType": "address",
          "name": "_Dcore",
          "type": "address"
        },
        {
          "internalType": "address",
          "name": "_Dstock",
          "type": "address"
        },
        {
          "internalType": "address",
          "name": "_Ddollar",
          "type": "address"
        },
        {
          "internalType": "uint32",
          "name": "_connectorWeight",
          "type": "uint32"
        },
        {
          "internalType": "uint256",
          "name": "_refundRatio",
          "type": "uint256"
        }
      ],
      "stateMutability": "nonpayable",
      "type": "constructor"
    },
    {
      "anonymous": false,
      "inputs": [
        {
          "indexed": false,
          "internalType": "uint256",
          "name": "dollarAmount",
          "type": "uint256"
        },
        {
          "indexed": false,
          "internalType": "address",
          "name": "tokenType",
          "type": "address"
        }
      ],
      "name": "FundWithdrawl",
      "type": "event"
    },
    {
      "anonymous": false,
      "inputs": [
        {
          "indexed": false,
          "internalType": "address",
          "name": "collateral",
          "type": "address"
        }
      ],
      "name": "NewCollateral",
      "type": "event"
    },
    {
      "anonymous": false,
      "inputs": [
        {
          "indexed": true,
          "internalType": "address",
          "name": "previousOwner",
          "type": "address"
        },
        {
          "indexed": true,
          "internalType": "address",
          "name": "newOwner",
          "type": "address"
        }
      ],
      "name": "OwnershipTransferred",
      "type": "event"
    },
    {
      "anonymous": false,
      "inputs": [
        {
          "indexed": false,
          "internalType": "uint256",
          "name": "dollarAmount",
          "type": "uint256"
        },
        {
          "indexed": false,
          "internalType": "uint256",
          "name": "stockAmount",
          "type": "uint256"
        },
        {
          "indexed": false,
          "internalType": "address",
          "name": "buyer",
          "type": "address"
        }
      ],
      "name": "StockPurchased",
      "type": "event"
    },
    {
      "anonymous": false,
      "inputs": [
        {
          "indexed": false,
          "internalType": "uint256",
          "name": "dollarAmount",
          "type": "uint256"
        },
        {
          "indexed": false,
          "internalType": "uint256",
          "name": "stockAmount",
          "type": "uint256"
        },
        {
          "indexed": false,
          "internalType": "uint256",
          "name": "reserveAmountAdded",
          "type": "uint256"
        },
        {
          "indexed": false,
          "internalType": "address",
          "name": "seller",
          "type": "address"
        }
      ],
      "name": "StockSold",
      "type": "event"
    },
    {
      "inputs": [],
      "name": "DC",
      "outputs": [
        {
          "internalType": "contract IDecentraCore",
          "name": "",
          "type": "address"
        }
      ],
      "stateMutability": "view",
      "type": "function"
    },
    {
      "inputs": [],
      "name": "DD",
      "outputs": [
        {
          "internalType": "contract IDecentraDollar",
          "name": "",
          "type": "address"
        }
      ],
      "stateMutability": "view",
      "type": "function"
    },
    {
      "inputs": [],
      "name": "DS",
      "outputs": [
        {
          "internalType": "contract IDecentraStock",
          "name": "",
          "type": "address"
        }
      ],
      "stateMutability": "view",
      "type": "function"
    },
    {
      "inputs": [],
      "name": "MAX_WEIGHT",
      "outputs": [
        {
          "internalType": "uint32",
          "name": "",
          "type": "uint32"
        }
      ],
      "stateMutability": "view",
      "type": "function"
    },
    {
      "inputs": [
        {
          "internalType": "address",
          "name": "_collateral",
          "type": "address"
        }
      ],
      "name": "addNewCollateralType",
      "outputs": [],
      "stateMutability": "nonpayable",
      "type": "function"
    },
    {
      "inputs": [],
      "name": "calculatePoolBal",
      "outputs": [
        {
          "internalType": "uint256",
          "name": "",
          "type": "uint256"
        }
      ],
      "stateMutability": "view",
      "type": "function"
    },
    {
      "inputs": [
        {
          "internalType": "uint256",
          "name": "_dollarAmount",
          "type": "uint256"
        }
      ],
      "name": "calculatePurchase",
      "outputs": [
        {
          "internalType": "uint256",
          "name": "",
          "type": "uint256"
        }
      ],
      "stateMutability": "view",
      "type": "function"
    },
    {
      "inputs": [
        {
          "internalType": "uint256",
          "name": "_supply",
          "type": "uint256"
        },
        {
          "internalType": "uint256",
          "name": "_connectorBalance",
          "type": "uint256"
        },
        {
          "internalType": "uint32",
          "name": "_connectorWeight",
          "type": "uint32"
        },
        {
          "internalType": "uint256",
          "name": "_depositAmount",
          "type": "uint256"
        }
      ],
      "name": "calculatePurchaseReturn",
      "outputs": [
        {
          "internalType": "uint256",
          "name": "",
          "type": "uint256"
        }
      ],
      "stateMutability": "view",
      "type": "function"
    },
    {
      "inputs": [
        {
          "internalType": "uint256",
          "name": "_stockAmount",
          "type": "uint256"
        }
      ],
      "name": "calculateSale",
      "outputs": [
        {
          "internalType": "uint256",
          "name": "",
          "type": "uint256"
        }
      ],
      "stateMutability": "view",
      "type": "function"
    },
    {
      "inputs": [
        {
          "internalType": "uint256",
          "name": "_supply",
          "type": "uint256"
        },
        {
          "internalType": "uint256",
          "name": "_connectorBalance",
          "type": "uint256"
        },
        {
          "internalType": "uint32",
          "name": "_connectorWeight",
          "type": "uint32"
        },
        {
          "internalType": "uint256",
          "name": "_sellAmount",
          "type": "uint256"
        }
      ],
      "name": "calculateSaleReturn",
      "outputs": [
        {
          "internalType": "uint256",
          "name": "",
          "type": "uint256"
        }
      ],
      "stateMutability": "view",
      "type": "function"
    },
    {
      "inputs": [],
      "name": "collateralCount",
      "outputs": [
        {
          "internalType": "uint256",
          "name": "",
          "type": "uint256"
        }
      ],
      "stateMutability": "view",
      "type": "function"
    },
    {
      "inputs": [
        {
          "internalType": "uint256",
          "name": "",
          "type": "uint256"
        }
      ],
      "name": "collateralTypes",
      "outputs": [
        {
          "internalType": "address",
          "name": "",
          "type": "address"
        }
      ],
      "stateMutability": "view",
      "type": "function"
    },
    {
      "inputs": [],
      "name": "connectorWeight",
      "outputs": [
        {
          "internalType": "uint32",
          "name": "",
          "type": "uint32"
        }
      ],
      "stateMutability": "view",
      "type": "function"
    },
    {
      "inputs": [],
      "name": "divisor",
      "outputs": [
        {
          "internalType": "uint256",
          "name": "",
          "type": "uint256"
        }
      ],
      "stateMutability": "view",
      "type": "function"
    },
    {
      "inputs": [],
      "name": "fractionalReserveValue",
      "outputs": [
        {
          "internalType": "uint256",
          "name": "",
          "type": "uint256"
        }
      ],
      "stateMutability": "view",
      "type": "function"
    },
    {
      "inputs": [
        {
          "internalType": "address",
          "name": "_to",
          "type": "address"
        },
        {
          "internalType": "uint256",
          "name": "_type",
          "type": "uint256"
        },
        {
          "internalType": "uint256",
          "name": "_amount",
          "type": "uint256"
        }
      ],
      "name": "fundWithdrawl",
      "outputs": [],
      "stateMutability": "nonpayable",
      "type": "function"
    },
    {
      "inputs": [],
      "name": "lockedBalance",
      "outputs": [
        {
          "internalType": "uint256",
          "name": "",
          "type": "uint256"
        }
      ],
      "stateMutability": "view",
      "type": "function"
    },
    {
      "inputs": [],
      "name": "owner",
      "outputs": [
        {
          "internalType": "address",
          "name": "",
          "type": "address"
        }
      ],
      "stateMutability": "view",
      "type": "function"
    },
    {
      "inputs": [],
      "name": "percent",
      "outputs": [
        {
          "internalType": "uint256",
          "name": "",
          "type": "uint256"
        }
      ],
      "stateMutability": "view",
      "type": "function"
    },
    {
      "inputs": [
        {
          "internalType": "uint256",
          "name": "_amount",
          "type": "uint256"
        },
        {
          "internalType": "uint256",
          "name": "_tokenType",
          "type": "uint256"
        }
      ],
      "name": "purchaseStock",
      "outputs": [],
      "stateMutability": "payable",
      "type": "function"
    },
    {
      "inputs": [],
      "name": "refundRatio",
      "outputs": [
        {
          "internalType": "uint256",
          "name": "",
          "type": "uint256"
        }
      ],
      "stateMutability": "view",
      "type": "function"
    },
    {
      "inputs": [],
      "name": "renounceOwnership",
      "outputs": [],
      "stateMutability": "nonpayable",
      "type": "function"
    },
    {
      "inputs": [
        {
          "internalType": "uint256",
          "name": "_amount",
          "type": "uint256"
        }
      ],
      "name": "sellStock",
      "outputs": [],
      "stateMutability": "nonpayable",
      "type": "function"
    },
    {
      "inputs": [],
      "name": "setUp",
      "outputs": [],
      "stateMutability": "payable",
      "type": "function"
    },
    {
      "inputs": [
        {
          "internalType": "address",
          "name": "newOwner",
          "type": "address"
        }
      ],
      "name": "transferOwnership",
      "outputs": [],
      "stateMutability": "nonpayable",
      "type": "function"
    },
    {
      "inputs": [],
      "name": "version",
      "outputs": [
        {
          "internalType": "string",
          "name": "",
          "type": "string"
        }
      ],
      "stateMutability": "view",
      "type": "function"
    }
  ],
  "bytecode": "0x60806040526040518060400160405280600381526020017f302e330000000000000000000000000000000000000000000000000000000000815250600190805190602001906200005192919062002271565b503480156200005f57600080fd5b506040516200653638038062006536833981810160405281019062000085919062002366565b6000620000976200226960201b60201c565b9050806000806101000a81548173ffffffffffffffffffffffffffffffffffffffff021916908373ffffffffffffffffffffffffffffffffffffffff1602179055508073ffffffffffffffffffffffffffffffffffffffff16600073ffffffffffffffffffffffffffffffffffffffff167f8be0079c531659141344cd1fd0a4f28419497f9722a3daafe3b4186f6b6457e060405160405180910390a350701c35fedd14ffffffffffffffffffffffff600260206080811062000183577f4e487b7100000000000000000000000000000000000000000000000000000000600052603260045260246000fd5b0181905550701b0ce43b323fffffffffffffffffffffff6002602160808110620001d6577f4e487b7100000000000000000000000000000000000000000000000000000000600052603260045260246000fd5b01819055507019f0028ec1ffffffffffffffffffffffff600260226080811062000229577f4e487b7100000000000000000000000000000000000000000000000000000000600052603260045260246000fd5b01819055507018ded91f0e7fffffffffffffffffffffff60026023608081106200027c577f4e487b7100000000000000000000000000000000000000000000000000000000600052603260045260246000fd5b01819055507017d8ec7f0417ffffffffffffffffffffff6002602460808110620002cf577f4e487b7100000000000000000000000000000000000000000000000000000000600052603260045260246000fd5b01819055507016ddc6556cdbffffffffffffffffffffff600260256080811062000322577f4e487b7100000000000000000000000000000000000000000000000000000000600052603260045260246000fd5b01819055507015ecf52776a1ffffffffffffffffffffff600260266080811062000375577f4e487b7100000000000000000000000000000000000000000000000000000000600052603260045260246000fd5b01819055507015060c256cb2ffffffffffffffffffffff6002602760808110620003c8577f4e487b7100000000000000000000000000000000000000000000000000000000600052603260045260246000fd5b0181905550701428a2f98d72ffffffffffffffffffffff60026028608081106200041b577f4e487b7100000000000000000000000000000000000000000000000000000000600052603260045260246000fd5b01819055507013545598e5c23fffffffffffffffffffff60026029608081106200046e577f4e487b7100000000000000000000000000000000000000000000000000000000600052603260045260246000fd5b0181905550701288c4161ce1dfffffffffffffffffffff6002602a60808110620004c1577f4e487b7100000000000000000000000000000000000000000000000000000000600052603260045260246000fd5b01819055507011c592761c666fffffffffffffffffffff6002602b6080811062000514577f4e487b7100000000000000000000000000000000000000000000000000000000600052603260045260246000fd5b018190555070110a688680a757ffffffffffffffffffff6002602c6080811062000567577f4e487b7100000000000000000000000000000000000000000000000000000000600052603260045260246000fd5b0181905550701056f1b5bedf77ffffffffffffffffffff6002602d60808110620005ba577f4e487b7100000000000000000000000000000000000000000000000000000000600052603260045260246000fd5b0181905550700faadceceeff8bffffffffffffffffffff6002602e608081106200060d577f4e487b7100000000000000000000000000000000000000000000000000000000600052603260045260246000fd5b0181905550700f05dc6b27edadffffffffffffffffffff6002602f6080811062000660577f4e487b7100000000000000000000000000000000000000000000000000000000600052603260045260246000fd5b0181905550700e67a5a25da4107fffffffffffffffffff6002603060808110620006b3577f4e487b7100000000000000000000000000000000000000000000000000000000600052603260045260246000fd5b0181905550700dcff115b14eedffffffffffffffffffff600260316080811062000706577f4e487b7100000000000000000000000000000000000000000000000000000000600052603260045260246000fd5b0181905550700d3e7a392431239fffffffffffffffffff600260326080811062000759577f4e487b7100000000000000000000000000000000000000000000000000000000600052603260045260246000fd5b0181905550700cb2ff529eb71e4fffffffffffffffffff6002603360808110620007ac577f4e487b7100000000000000000000000000000000000000000000000000000000600052603260045260246000fd5b0181905550700c2d415c3db974afffffffffffffffffff6002603460808110620007ff577f4e487b7100000000000000000000000000000000000000000000000000000000600052603260045260246000fd5b0181905550700bad03e7d883f69bffffffffffffffffff600260356080811062000852577f4e487b7100000000000000000000000000000000000000000000000000000000600052603260045260246000fd5b0181905550700b320d03b2c343d5ffffffffffffffffff6002603660808110620008a5577f4e487b7100000000000000000000000000000000000000000000000000000000600052603260045260246000fd5b0181905550700abc25204e02828dffffffffffffffffff6002603760808110620008f8577f4e487b7100000000000000000000000000000000000000000000000000000000600052603260045260246000fd5b0181905550700a4b16f74ee4bb207fffffffffffffffff60026038608081106200094b577f4e487b7100000000000000000000000000000000000000000000000000000000600052603260045260246000fd5b01819055507009deaf736ac1f569ffffffffffffffffff60026039608081106200099e577f4e487b7100000000000000000000000000000000000000000000000000000000600052603260045260246000fd5b0181905550700976bd9952c7aa957fffffffffffffffff6002603a60808110620009f1577f4e487b7100000000000000000000000000000000000000000000000000000000600052603260045260246000fd5b01819055507009131271922eaa606fffffffffffffffff6002603b6080811062000a44577f4e487b7100000000000000000000000000000000000000000000000000000000600052603260045260246000fd5b01819055507008b380f3558668c46fffffffffffffffff6002603c6080811062000a97577f4e487b7100000000000000000000000000000000000000000000000000000000600052603260045260246000fd5b0181905550700857ddf0117efa215bffffffffffffffff6002603d6080811062000aea577f4e487b7100000000000000000000000000000000000000000000000000000000600052603260045260246000fd5b01819055507007ffffffffffffffffffffffffffffffff6002603e6080811062000b3d577f4e487b7100000000000000000000000000000000000000000000000000000000600052603260045260246000fd5b01819055507007abbf6f6abb9d087fffffffffffffffff6002603f6080811062000b90577f4e487b7100000000000000000000000000000000000000000000000000000000600052603260045260246000fd5b018190555070075af62cbac95f7dfa7fffffffffffffff600260406080811062000be3577f4e487b7100000000000000000000000000000000000000000000000000000000600052603260045260246000fd5b018190555070070d7fb7452e187ac13fffffffffffffff600260416080811062000c36577f4e487b7100000000000000000000000000000000000000000000000000000000600052603260045260246000fd5b01819055507006c3390ecc8af379295fffffffffffffff600260426080811062000c89577f4e487b7100000000000000000000000000000000000000000000000000000000600052603260045260246000fd5b018190555070067c00a3b07ffc01fd6fffffffffffffff600260436080811062000cdc577f4e487b7100000000000000000000000000000000000000000000000000000000600052603260045260246000fd5b0181905550700637b647c39cbb9d3d27ffffffffffffff600260446080811062000d2f577f4e487b7100000000000000000000000000000000000000000000000000000000600052603260045260246000fd5b01819055507005f63b1fc104dbd39587ffffffffffffff600260456080811062000d82577f4e487b7100000000000000000000000000000000000000000000000000000000600052603260045260246000fd5b01819055507005b771955b36e12f7235ffffffffffffff600260466080811062000dd5577f4e487b7100000000000000000000000000000000000000000000000000000000600052603260045260246000fd5b018190555070057b3d49dda84556d6f6ffffffffffffff600260476080811062000e28577f4e487b7100000000000000000000000000000000000000000000000000000000600052603260045260246000fd5b018190555070054183095b2c8ececf30ffffffffffffff600260486080811062000e7b577f4e487b7100000000000000000000000000000000000000000000000000000000600052603260045260246000fd5b018190555070050a28be635ca2b888f77fffffffffffff600260496080811062000ece577f4e487b7100000000000000000000000000000000000000000000000000000000600052603260045260246000fd5b01819055507004d5156639708c9db33c3fffffffffffff6002604a6080811062000f21577f4e487b7100000000000000000000000000000000000000000000000000000000600052603260045260246000fd5b01819055507004a23105873875bd52dfdfffffffffffff6002604b6080811062000f74577f4e487b7100000000000000000000000000000000000000000000000000000000600052603260045260246000fd5b0181905550700471649d87199aa990756fffffffffffff6002604c6080811062000fc7577f4e487b7100000000000000000000000000000000000000000000000000000000600052603260045260246000fd5b01819055507004429a21a029d4c1457cfbffffffffffff6002604d608081106200101a577f4e487b7100000000000000000000000000000000000000000000000000000000600052603260045260246000fd5b0181905550700415bc6d6fb7dd71af2cb3ffffffffffff6002604e608081106200106d577f4e487b7100000000000000000000000000000000000000000000000000000000600052603260045260246000fd5b01819055507003eab73b3bbfe282243ce1ffffffffffff6002604f60808110620010c0577f4e487b7100000000000000000000000000000000000000000000000000000000600052603260045260246000fd5b01819055507003c1771ac9fb6b4c18e229ffffffffffff600260506080811062001113577f4e487b7100000000000000000000000000000000000000000000000000000000600052603260045260246000fd5b0181905550700399e96897690418f785257fffffffffff600260516080811062001166577f4e487b7100000000000000000000000000000000000000000000000000000000600052603260045260246000fd5b0181905550700373fc456c53bb779bf0ea9fffffffffff6002605260808110620011b9577f4e487b7100000000000000000000000000000000000000000000000000000000600052603260045260246000fd5b018190555070034f9e8e490c48e67e6ab8bfffffffffff60026053608081106200120c577f4e487b7100000000000000000000000000000000000000000000000000000000600052603260045260246000fd5b018190555070032cbfd4a7adc790560b3337ffffffffff60026054608081106200125f577f4e487b7100000000000000000000000000000000000000000000000000000000600052603260045260246000fd5b018190555070030b50570f6e5d2acca94613ffffffffff6002605560808110620012b2577f4e487b7100000000000000000000000000000000000000000000000000000000600052603260045260246000fd5b01819055507002eb40f9f620fda6b56c2861ffffffffff600260566080811062001305577f4e487b7100000000000000000000000000000000000000000000000000000000600052603260045260246000fd5b01819055507002cc8340ecb0d0f520a6af58ffffffffff600260576080811062001358577f4e487b7100000000000000000000000000000000000000000000000000000000600052603260045260246000fd5b01819055507002af09481380a0a35cf1ba02ffffffffff6002605860808110620013ab577f4e487b7100000000000000000000000000000000000000000000000000000000600052603260045260246000fd5b0181905550700292c5bdd3b92ec810287b1b3fffffffff6002605960808110620013fe577f4e487b7100000000000000000000000000000000000000000000000000000000600052603260045260246000fd5b0181905550700277abdcdab07d5a77ac6d6b9fffffffff6002605a6080811062001451577f4e487b7100000000000000000000000000000000000000000000000000000000600052603260045260246000fd5b018190555070025daf6654b1eaa55fd64df5efffffffff6002605b60808110620014a4577f4e487b7100000000000000000000000000000000000000000000000000000000600052603260045260246000fd5b0181905550700244c49c648baa98192dce88b7ffffffff6002605c60808110620014f7577f4e487b7100000000000000000000000000000000000000000000000000000000600052603260045260246000fd5b018190555070022ce03cd5619a311b2471268bffffffff6002605d608081106200154a577f4e487b7100000000000000000000000000000000000000000000000000000000600052603260045260246000fd5b0181905550700215f77c045fbe885654a44a0fffffffff6002605e608081106200159d577f4e487b7100000000000000000000000000000000000000000000000000000000600052603260045260246000fd5b01819055507001ffffffffffffffffffffffffffffffff6002605f60808110620015f0577f4e487b7100000000000000000000000000000000000000000000000000000000600052603260045260246000fd5b01819055507001eaefdbdaaee7421fc4d3ede5ffffffff600260606080811062001643577f4e487b7100000000000000000000000000000000000000000000000000000000600052603260045260246000fd5b01819055507001d6bd8b2eb257df7e8ca57b09bfffffff600260616080811062001696577f4e487b7100000000000000000000000000000000000000000000000000000000600052603260045260246000fd5b01819055507001c35fedd14b861eb0443f7f133fffffff6002606260808110620016e9577f4e487b7100000000000000000000000000000000000000000000000000000000600052603260045260246000fd5b01819055507001b0ce43b322bcde4a56e8ada5afffffff60026063608081106200173c577f4e487b7100000000000000000000000000000000000000000000000000000000600052603260045260246000fd5b018190555070019f0028ec1fff007f5a195a39dfffffff60026064608081106200178f577f4e487b7100000000000000000000000000000000000000000000000000000000600052603260045260246000fd5b018190555070018ded91f0e72ee74f49b15ba527ffffff6002606560808110620017e2577f4e487b7100000000000000000000000000000000000000000000000000000000600052603260045260246000fd5b018190555070017d8ec7f04136f4e5615fd41a63ffffff600260666080811062001835577f4e487b7100000000000000000000000000000000000000000000000000000000600052603260045260246000fd5b018190555070016ddc6556cdb84bdc8d12d22e6fffffff600260676080811062001888577f4e487b7100000000000000000000000000000000000000000000000000000000600052603260045260246000fd5b018190555070015ecf52776a1155b5bd8395814f7fffff6002606860808110620018db577f4e487b7100000000000000000000000000000000000000000000000000000000600052603260045260246000fd5b018190555070015060c256cb23b3b3cc3754cf40ffffff60026069608081106200192e577f4e487b7100000000000000000000000000000000000000000000000000000000600052603260045260246000fd5b01819055507001428a2f98d728ae223ddab715be3fffff6002606a6080811062001981577f4e487b7100000000000000000000000000000000000000000000000000000000600052603260045260246000fd5b018190555070013545598e5c23276ccf0ede68034fffff6002606b60808110620019d4577f4e487b7100000000000000000000000000000000000000000000000000000000600052603260045260246000fd5b01819055507001288c4161ce1d6f54b7f61081194fffff6002606c6080811062001a27577f4e487b7100000000000000000000000000000000000000000000000000000000600052603260045260246000fd5b018190555070011c592761c666aa641d5a01a40f17ffff6002606d6080811062001a7a577f4e487b7100000000000000000000000000000000000000000000000000000000600052603260045260246000fd5b0181905550700110a688680a7530515f3e6e6cfdcdffff6002606e6080811062001acd577f4e487b7100000000000000000000000000000000000000000000000000000000600052603260045260246000fd5b01819055507001056f1b5bedf75c6bcb2ce8aed428ffff6002606f6080811062001b20577f4e487b7100000000000000000000000000000000000000000000000000000000600052603260045260246000fd5b01819055506ffaadceceeff8a0890f3875f008277fff600260706080811062001b72577f4e487b7100000000000000000000000000000000000000000000000000000000600052603260045260246000fd5b01819055506ff05dc6b27edad306388a600f6ba0bfff600260716080811062001bc4577f4e487b7100000000000000000000000000000000000000000000000000000000600052603260045260246000fd5b01819055506fe67a5a25da41063de1495d5b18cdbfff600260726080811062001c16577f4e487b7100000000000000000000000000000000000000000000000000000000600052603260045260246000fd5b01819055506fdcff115b14eedde6fc3aa5353f2e4fff600260736080811062001c68577f4e487b7100000000000000000000000000000000000000000000000000000000600052603260045260246000fd5b01819055506fd3e7a3924312399f9aae2e0f868f8fff600260746080811062001cba577f4e487b7100000000000000000000000000000000000000000000000000000000600052603260045260246000fd5b01819055506fcb2ff529eb71e41582cccd5a1ee26fff600260756080811062001d0c577f4e487b7100000000000000000000000000000000000000000000000000000000600052603260045260246000fd5b01819055506fc2d415c3db974ab32a51840c0b67edff600260766080811062001d5e577f4e487b7100000000000000000000000000000000000000000000000000000000600052603260045260246000fd5b01819055506fbad03e7d883f69ad5b0a186184e06bff600260776080811062001db0577f4e487b7100000000000000000000000000000000000000000000000000000000600052603260045260246000fd5b01819055506fb320d03b2c343d4829abd6075f0cc5ff600260786080811062001e02577f4e487b7100000000000000000000000000000000000000000000000000000000600052603260045260246000fd5b01819055506fabc25204e02828d73c6e80bcdb1a95bf600260796080811062001e54577f4e487b7100000000000000000000000000000000000000000000000000000000600052603260045260246000fd5b01819055506fa4b16f74ee4bb2040a1ec6c15fbbf2df6002607a6080811062001ea6577f4e487b7100000000000000000000000000000000000000000000000000000000600052603260045260246000fd5b01819055506f9deaf736ac1f569deb1b5ae3f36c130f6002607b6080811062001ef8577f4e487b7100000000000000000000000000000000000000000000000000000000600052603260045260246000fd5b01819055506f976bd9952c7aa957f5937d790ef650376002607c6080811062001f4a577f4e487b7100000000000000000000000000000000000000000000000000000000600052603260045260246000fd5b01819055506f9131271922eaa6064b73a22d0bd4f2bf6002607d6080811062001f9c577f4e487b7100000000000000000000000000000000000000000000000000000000600052603260045260246000fd5b01819055506f8b380f3558668c46c91c49a2f8e967b96002607e6080811062001fee577f4e487b7100000000000000000000000000000000000000000000000000000000600052603260045260246000fd5b01819055506f857ddf0117efa215952912839f6473e66002607f6080811062002040577f4e487b7100000000000000000000000000000000000000000000000000000000600052603260045260246000fd5b0181905550620f4240608260006101000a81548163ffffffff021916908363ffffffff16021790555082608960006101000a81548173ffffffffffffffffffffffffffffffffffffffff021916908373ffffffffffffffffffffffffffffffffffffffff16021790555083608a60006101000a81548173ffffffffffffffffffffffffffffffffffffffff021916908373ffffffffffffffffffffffffffffffffffffffff16021790555084608b60006101000a81548173ffffffffffffffffffffffffffffffffffffffff021916908373ffffffffffffffffffffffffffffffffffffffff160217905550608c60009080600181540180825580915050600190039060005260206000200160009091909190916101000a81548173ffffffffffffffffffffffffffffffffffffffff021916908373ffffffffffffffffffffffffffffffffffffffff160217905550608c608960009054906101000a900473ffffffffffffffffffffffffffffffffffffffff169080600181540180825580915050600190039060005260206000200160009091909190916101000a81548173ffffffffffffffffffffffffffffffffffffffff021916908373ffffffffffffffffffffffffffffffffffffffff160217905550600160878190555081608260046101000a81548163ffffffff021916908363ffffffff16021790555080608481905550601960858190555061271060868190555060026088819055505050505050620024e9565b600033905090565b8280546200227f9062002436565b90600052602060002090601f016020900481019282620022a35760008555620022ef565b82601f10620022be57805160ff1916838001178555620022ef565b82800160010185558215620022ef579182015b82811115620022ee578251825591602001919060010190620022d1565b5b509050620022fe919062002302565b5090565b5b808211156200231d57600081600090555060010162002303565b5090565b60008151905062002332816200249b565b92915050565b6000815190506200234981620024b5565b92915050565b6000815190506200236081620024cf565b92915050565b600080600080600060a086880312156200237f57600080fd5b60006200238f8882890162002321565b9550506020620023a28882890162002321565b9450506040620023b58882890162002321565b9350506060620023c8888289016200234f565b9250506080620023db8882890162002338565b9150509295509295909350565b6000620023f582620023fc565b9050919050565b600073ffffffffffffffffffffffffffffffffffffffff82169050919050565b6000819050919050565b600063ffffffff82169050919050565b600060028204905060018216806200244f57607f821691505b602082108114156200246657620024656200246c565b5b50919050565b7f4e487b7100000000000000000000000000000000000000000000000000000000600052602260045260246000fd5b620024a681620023e8565b8114620024b257600080fd5b50565b620024c0816200241c565b8114620024cc57600080fd5b50565b620024da8162002426565b8114620024e657600080fd5b50565b61403d80620024f96000396000f3fe6080604052600436106101815760003560e01c80637b80889b116100d1578063ca3e24c91161008a578063e4a28a5211610064578063e4a28a5214610536578063eccc32f214610561578063f04b11881461058c578063f2fde38b146105c957610181565b8063ca3e24c9146104b4578063d53ffbcf146104dd578063e1f1e902146104f957610181565b80637b80889b146103a25780638da5cb5b146103cd5780639104c81e146103f8578063918b7cfe14610421578063b586c9a21461045e578063b6faaf8a1461048957610181565b806354fd4d501161013e57806370ba11131161011857806370ba11131461030c578063715018a614610337578063717ad4381461034e578063780249cd1461037757610181565b806354fd4d501461028b5780635cf590d9146102b657806363795d57146102e157610181565b80630a9254e4146101865780631f2dc5ef1461019057806324d69228146101bb57806329a00e7c146101e65780634242bac01461022357806349f9b0f71461024e575b600080fd5b61018e6105f2565b005b34801561019c57600080fd5b506101a56107b4565b6040516101b29190613b1e565b60405180910390f35b3480156101c757600080fd5b506101d06107ba565b6040516101dd9190613b1e565b60405180910390f35b3480156101f257600080fd5b5061020d600480360381019061020891906137bc565b6109a7565b60405161021a9190613b1e565b60405180910390f35b34801561022f57600080fd5b50610238610ad9565b6040516102459190613a81565b60405180910390f35b34801561025a57600080fd5b50610275600480360381019061027091906137bc565b610aff565b6040516102829190613b1e565b60405180910390f35b34801561029757600080fd5b506102a0610c65565b6040516102ad9190613a9c565b60405180910390f35b3480156102c257600080fd5b506102cb610cf3565b6040516102d89190613b1e565b60405180910390f35b3480156102ed57600080fd5b506102f6610cf9565b6040516103039190613b1e565b60405180910390f35b34801561031857600080fd5b50610321610cff565b60405161032e9190613b1e565b60405180910390f35b34801561034357600080fd5b5061034c610d05565b005b34801561035a57600080fd5b50610375600480360381019061037091906136b6565b610e3f565b005b34801561038357600080fd5b5061038c610fb8565b6040516103999190613a4b565b60405180910390f35b3480156103ae57600080fd5b506103b7610fde565b6040516103c49190613b1e565b60405180910390f35b3480156103d957600080fd5b506103e2610fe4565b6040516103ef91906139a7565b60405180910390f35b34801561040457600080fd5b5061041f600480360381019061041a919061372e565b61100d565b005b34801561042d57600080fd5b506104486004803603810190610443919061372e565b6112cf565b60405161045591906139a7565b60405180910390f35b34801561046a57600080fd5b5061047361130e565b6040516104809190613b39565b60405180910390f35b34801561049557600080fd5b5061049e611324565b6040516104ab9190613b1e565b60405180910390f35b3480156104c057600080fd5b506104db60048036038101906104d6919061368d565b61132a565b005b6104f760048036038101906104f29190613780565b611446565b005b34801561050557600080fd5b50610520600480360381019061051b919061372e565b611687565b60405161052d9190613b1e565b60405180910390f35b34801561054257600080fd5b5061054b611765565b6040516105589190613b39565b60405180910390f35b34801561056d57600080fd5b5061057661177b565b6040516105839190613a66565b60405180910390f35b34801561059857600080fd5b506105b360048036038101906105ae919061372e565b6117a1565b6040516105c09190613b1e565b60405180910390f35b3480156105d557600080fd5b506105f060048036038101906105eb919061368d565b6118a9565b005b6105fa611a52565b73ffffffffffffffffffffffffffffffffffffffff16610618610fe4565b73ffffffffffffffffffffffffffffffffffffffff161461066e576040517f08c379a000000000000000000000000000000000000000000000000000000000815260040161066590613ade565b60405180910390fd5b608b60009054906101000a900473ffffffffffffffffffffffffffffffffffffffff1673ffffffffffffffffffffffffffffffffffffffff166383ac74f9306b204fce5e3e250261100000006040518363ffffffff1660e01b81526004016106d79291906139f9565b600060405180830381600087803b1580156106f157600080fd5b505af1158015610705573d6000803e3d6000fd5b5050505060006107206b204fce5e3e25026110000000611687565b9050608b60009054906101000a900473ffffffffffffffffffffffffffffffffffffffff1673ffffffffffffffffffffffffffffffffffffffff166382f4f5b433836040518363ffffffff1660e01b815260040161077f929190613a22565b600060405180830381600087803b15801561079957600080fd5b505af11580156107ad573d6000803e3d6000fd5b5050505050565b60865481565b60008060005b608c8054905081101561099f57600073ffffffffffffffffffffffffffffffffffffffff16608c828154811061081f577f4e487b7100000000000000000000000000000000000000000000000000000000600052603260045260246000fd5b9060005260206000200160009054906101000a900473ffffffffffffffffffffffffffffffffffffffff1673ffffffffffffffffffffffffffffffffffffffff161415610880576108794783611a5a90919063ffffffff16565b915061098e565b6000608c82815481106108bc577f4e487b7100000000000000000000000000000000000000000000000000000000600052603260045260246000fd5b9060005260206000200160009054906101000a900473ffffffffffffffffffffffffffffffffffffffff16905060008173ffffffffffffffffffffffffffffffffffffffff166370a08231306040518263ffffffff1660e01b815260040161092491906139a7565b60206040518083038186803b15801561093c57600080fd5b505afa158015610950573d6000803e3d6000fd5b505050506040513d601f19601f820116820180604052508101906109749190613757565b90506109898185611a5a90919063ffffffff16565b935050505b8061099890613e93565b90506107c0565b508091505090565b600080851180156109b85750600084115b80156109ca575060008363ffffffff16115b80156109f45750608260009054906101000a900463ffffffff1663ffffffff168363ffffffff1611155b6109fd57600080fd5b6000821415610a0f5760009050610ad1565b608260009054906101000a900463ffffffff1663ffffffff168363ffffffff161415610a6157610a5a84610a4c8488611a7090919063ffffffff16565b611a8690919063ffffffff16565b9050610ad1565b6000806000610a798786611a5a90919063ffffffff16565b9050610a99818888608260009054906101000a900463ffffffff16611a9c565b809350819450505060008260ff16610aba858b611a7090919063ffffffff16565b901c90508881610aca9190613cb9565b9450505050505b949350505050565b608a60009054906101000a900473ffffffffffffffffffffffffffffffffffffffff1681565b60008085118015610b105750600084115b8015610b22575060008363ffffffff16115b8015610b4c5750608260009054906101000a900463ffffffff1663ffffffff168363ffffffff1611155b8015610b585750848211155b610b6157600080fd5b6000821415610b735760009050610c5d565b84821415610b8357839050610c5d565b608260009054906101000a900463ffffffff1663ffffffff168363ffffffff161415610bd557610bce85610bc08487611a7090919063ffffffff16565b611a8690919063ffffffff16565b9050610c5d565b60008060008488610be69190613cb9565b9050610c068882608260009054906101000a900463ffffffff1689611a9c565b80935081945050506000610c238489611a7090919063ffffffff16565b905060008360ff1689901b9050610c5585610c478385611c1d90919063ffffffff16565b611a8690919063ffffffff16565b955050505050505b949350505050565b60018054610c7290613e61565b80601f0160208091040260200160405190810160405280929190818152602001828054610c9e90613e61565b8015610ceb5780601f10610cc057610100808354040283529160200191610ceb565b820191906000526020600020905b815481529060010190602001808311610cce57829003601f168201915b505050505081565b60845481565b60885481565b60855481565b610d0d611a52565b73ffffffffffffffffffffffffffffffffffffffff16610d2b610fe4565b73ffffffffffffffffffffffffffffffffffffffff1614610d81576040517f08c379a0000000000000000000000000000000000000000000000000000000008152600401610d7890613ade565b60405180910390fd5b600073ffffffffffffffffffffffffffffffffffffffff1660008054906101000a900473ffffffffffffffffffffffffffffffffffffffff1673ffffffffffffffffffffffffffffffffffffffff167f8be0079c531659141344cd1fd0a4f28419497f9722a3daafe3b4186f6b6457e060405160405180910390a360008060006101000a81548173ffffffffffffffffffffffffffffffffffffffff021916908373ffffffffffffffffffffffffffffffffffffffff160217905550565b610e47611a52565b73ffffffffffffffffffffffffffffffffffffffff16610e65610fe4565b73ffffffffffffffffffffffffffffffffffffffff1614610ebb576040517f08c379a0000000000000000000000000000000000000000000000000000000008152600401610eb290613ade565b60405180910390fd5b6000608c8381548110610ef7577f4e487b7100000000000000000000000000000000000000000000000000000000600052603260045260246000fd5b9060005260206000200160009054906101000a900473ffffffffffffffffffffffffffffffffffffffff1690508073ffffffffffffffffffffffffffffffffffffffff1663a9059cbb85846040518363ffffffff1660e01b8152600401610f5f929190613a22565b602060405180830381600087803b158015610f7957600080fd5b505af1158015610f8d573d6000803e3d6000fd5b505050506040513d601f19601f82011682018060405250810190610fb19190613705565b5050505050565b608b60009054906101000a900473ffffffffffffffffffffffffffffffffffffffff1681565b60835481565b60008060009054906101000a900473ffffffffffffffffffffffffffffffffffffffff16905090565b6000611018826117a1565b9050608b60009054906101000a900473ffffffffffffffffffffffffffffffffffffffff1673ffffffffffffffffffffffffffffffffffffffff16639c94f65133836040518363ffffffff1660e01b8152600401611077929190613a22565b600060405180830381600087803b15801561109157600080fd5b505af11580156110a5573d6000803e3d6000fd5b505050506000608c80549050905060006110c88284611a8690919063ffffffff16565b905060005b608c8054905081116112c857600073ffffffffffffffffffffffffffffffffffffffff16608c828154811061112b577f4e487b7100000000000000000000000000000000000000000000000000000000600052603260045260246000fd5b9060005260206000200160009054906101000a900473ffffffffffffffffffffffffffffffffffffffff1673ffffffffffffffffffffffffffffffffffffffff1614156111be573373ffffffffffffffffffffffffffffffffffffffff166108fc839081150290604051600060405180830381858888f193505050501580156111b8573d6000803e3d6000fd5b506112b7565b6000608c82815481106111fa577f4e487b7100000000000000000000000000000000000000000000000000000000600052603260045260246000fd5b9060005260206000200160009054906101000a900473ffffffffffffffffffffffffffffffffffffffff1690508073ffffffffffffffffffffffffffffffffffffffff1663a9059cbb33856040518363ffffffff1660e01b8152600401611262929190613a22565b602060405180830381600087803b15801561127c57600080fd5b505af1158015611290573d6000803e3d6000fd5b505050506040513d601f19601f820116820180604052508101906112b49190613705565b50505b806112c190613e93565b90506110cd565b5050505050565b608c81815481106112df57600080fd5b906000526020600020016000915054906101000a900473ffffffffffffffffffffffffffffffffffffffff1681565b608260049054906101000a900463ffffffff1681565b60875481565b611332611a52565b73ffffffffffffffffffffffffffffffffffffffff16611350610fe4565b73ffffffffffffffffffffffffffffffffffffffff16146113a6576040517f08c379a000000000000000000000000000000000000000000000000000000000815260040161139d90613ade565b60405180910390fd5b608760008154809291906113b990613e93565b919050555080608c608754815481106113fb577f4e487b7100000000000000000000000000000000000000000000000000000000600052603260045260246000fd5b9060005260206000200160006101000a81548173ffffffffffffffffffffffffffffffffffffffff021916908373ffffffffffffffffffffffffffffffffffffffff16021790555050565b600061145183611687565b905060008083141561146557349050611563565b6000608c84815481106114a1577f4e487b7100000000000000000000000000000000000000000000000000000000600052603260045260246000fd5b9060005260206000200160009054906101000a900473ffffffffffffffffffffffffffffffffffffffff1690508491508073ffffffffffffffffffffffffffffffffffffffff166323b872dd3330856040518463ffffffff1660e01b815260040161150e939291906139c2565b602060405180830381600087803b15801561152857600080fd5b505af115801561153c573d6000803e3d6000fd5b505050506040513d601f19601f820116820180604052508101906115609190613705565b50505b608b60009054906101000a900473ffffffffffffffffffffffffffffffffffffffff1673ffffffffffffffffffffffffffffffffffffffff166383ac74f930836040518363ffffffff1660e01b81526004016115c0929190613a22565b600060405180830381600087803b1580156115da57600080fd5b505af11580156115ee573d6000803e3d6000fd5b50505050608b60009054906101000a900473ffffffffffffffffffffffffffffffffffffffff1673ffffffffffffffffffffffffffffffffffffffff166382f4f5b433846040518363ffffffff1660e01b815260040161164f929190613a22565b600060405180830381600087803b15801561166957600080fd5b505af115801561167d573d6000803e3d6000fd5b5050505050505050565b6000806116926107ba565b90506000608a60009054906101000a900473ffffffffffffffffffffffffffffffffffffffff1673ffffffffffffffffffffffffffffffffffffffff166318160ddd6040518163ffffffff1660e01b815260040160206040518083038186803b1580156116fe57600080fd5b505afa158015611712573d6000803e3d6000fd5b505050506040513d601f19601f820116820180604052508101906117369190613757565b905060006117588284608260049054906101000a900463ffffffff16886109a7565b9050809350505050919050565b608260009054906101000a900463ffffffff1681565b608960009054906101000a900473ffffffffffffffffffffffffffffffffffffffff1681565b6000806117ac6107ba565b90506000608a60009054906101000a900473ffffffffffffffffffffffffffffffffffffffff1673ffffffffffffffffffffffffffffffffffffffff166318160ddd6040518163ffffffff1660e01b815260040160206040518083038186803b15801561181857600080fd5b505afa15801561182c573d6000803e3d6000fd5b505050506040513d601f19601f820116820180604052508101906118509190613757565b905060006118728284608260049054906101000a900463ffffffff1688610aff565b905061189c606461188e60845484611a7090919063ffffffff16565b611a8690919063ffffffff16565b9050809350505050919050565b6118b1611a52565b73ffffffffffffffffffffffffffffffffffffffff166118cf610fe4565b73ffffffffffffffffffffffffffffffffffffffff1614611925576040517f08c379a000000000000000000000000000000000000000000000000000000000815260040161191c90613ade565b60405180910390fd5b600073ffffffffffffffffffffffffffffffffffffffff168173ffffffffffffffffffffffffffffffffffffffff161415611995576040517f08c379a000000000000000000000000000000000000000000000000000000000815260040161198c90613abe565b60405180910390fd5b8073ffffffffffffffffffffffffffffffffffffffff1660008054906101000a900473ffffffffffffffffffffffffffffffffffffffff1673ffffffffffffffffffffffffffffffffffffffff167f8be0079c531659141344cd1fd0a4f28419497f9722a3daafe3b4186f6b6457e060405160405180910390a3806000806101000a81548173ffffffffffffffffffffffffffffffffffffffff021916908373ffffffffffffffffffffffffffffffffffffffff16021790555050565b600033905090565b60008183611a689190613b70565b905092915050565b60008183611a7e9190613c5f565b905092915050565b60008183611a949190613bfd565b905092915050565b6000807002000000000000000000000000000000008610611ae6577f4e487b7100000000000000000000000000000000000000000000000000000000600052600160045260246000fd5b84861015611b29576040517f08c379a0000000000000000000000000000000000000000000000000000000008152600401611b2090613afe565b60405180910390fd5b600080866f8000000000000000000000000000000089611b499190613c5f565b611b539190613bfd565b905070015bf0a8b1457695355fb8ac404e7a79e3811015611b7e57611b7781611c33565b9150611b8a565b611b87816123ac565b91505b60008563ffffffff168763ffffffff1684611ba59190613c5f565b611baf9190613bfd565b9050700800000000000000000000000000000000811015611be157611bd38161250c565b607f94509450505050611c14565b6000611bec82612d10565b9050611c0a81607f611bfe9190613ced565b60ff1683901c82612e8a565b8195509550505050505b94509492505050565b60008183611c2b9190613cb9565b905092915050565b6000806000905060008060006fd3094c70f034de4b96ff7d5b6f99fcd88610611cae576f4000000000000000000000000000000084611c729190613b70565b93506fd3094c70f034de4b96ff7d5b6f99fcd86f8000000000000000000000000000000087611ca19190613c5f565b611cab9190613bfd565b95505b6fa45af1e1f40c333b3de1db4dd55f29a78610611d1d576f2000000000000000000000000000000084611ce19190613b70565b93506fa45af1e1f40c333b3de1db4dd55f29a76f8000000000000000000000000000000087611d109190613c5f565b611d1a9190613bfd565b95505b6f910b022db7ae67ce76b441c27035c6a18610611d8c576f1000000000000000000000000000000084611d509190613b70565b93506f910b022db7ae67ce76b441c27035c6a16f8000000000000000000000000000000087611d7f9190613c5f565b611d899190613bfd565b95505b6f88415abbe9a76bead8d00cf112e4d4a88610611dfb576f0800000000000000000000000000000084611dbf9190613b70565b93506f88415abbe9a76bead8d00cf112e4d4a86f8000000000000000000000000000000087611dee9190613c5f565b611df89190613bfd565b95505b6f84102b00893f64c705e841d5d4064bd38610611e6a576f0400000000000000000000000000000084611e2e9190613b70565b93506f84102b00893f64c705e841d5d4064bd36f8000000000000000000000000000000087611e5d9190613c5f565b611e679190613bfd565b95505b6f8204055aaef1c8bd5c3259f4822735a28610611ed9576f0200000000000000000000000000000084611e9d9190613b70565b93506f8204055aaef1c8bd5c3259f4822735a26f8000000000000000000000000000000087611ecc9190613c5f565b611ed69190613bfd565b95505b6f810100ab00222d861931c15e39b44e998610611f48576f0100000000000000000000000000000084611f0c9190613b70565b93506f810100ab00222d861931c15e39b44e996f8000000000000000000000000000000087611f3b9190613c5f565b611f459190613bfd565b95505b6f808040155aabbbe9451521693554f7338610611fb6576e80000000000000000000000000000084611f7a9190613b70565b93506f808040155aabbbe9451521693554f7336f8000000000000000000000000000000087611fa99190613c5f565b611fb39190613bfd565b95505b6f8000000000000000000000000000000086611fd29190613cb9565b92508291506f800000000000000000000000000000008384611ff49190613c5f565b611ffe9190613bfd565b90507001000000000000000000000000000000008370010000000000000000000000000000000061202f9190613cb9565b8361203a9190613c5f565b6120449190613bfd565b8461204f9190613b70565b93506f80000000000000000000000000000000818361206e9190613c5f565b6120789190613bfd565b9150700200000000000000000000000000000000836faaaaaaaaaaaaaaaaaaaaaaaaaaaaaaaa6120a89190613cb9565b836120b39190613c5f565b6120bd9190613bfd565b846120c89190613b70565b93506f8000000000000000000000000000000081836120e79190613c5f565b6120f19190613bfd565b9150700300000000000000000000000000000000836f999999999999999999999999999999996121219190613cb9565b8361212c9190613c5f565b6121369190613bfd565b846121419190613b70565b93506f8000000000000000000000000000000081836121609190613c5f565b61216a9190613bfd565b9150700400000000000000000000000000000000836f9249249249249249249249249249249261219a9190613cb9565b836121a59190613c5f565b6121af9190613bfd565b846121ba9190613b70565b93506f8000000000000000000000000000000081836121d99190613c5f565b6121e39190613bfd565b9150700500000000000000000000000000000000836f8e38e38e38e38e38e38e38e38e38e38e6122139190613cb9565b8361221e9190613c5f565b6122289190613bfd565b846122339190613b70565b93506f8000000000000000000000000000000081836122529190613c5f565b61225c9190613bfd565b9150700600000000000000000000000000000000836f8ba2e8ba2e8ba2e8ba2e8ba2e8ba2e8b61228c9190613cb9565b836122979190613c5f565b6122a19190613bfd565b846122ac9190613b70565b93506f8000000000000000000000000000000081836122cb9190613c5f565b6122d59190613bfd565b9150700700000000000000000000000000000000836f89d89d89d89d89d89d89d89d89d89d896123059190613cb9565b836123109190613c5f565b61231a9190613bfd565b846123259190613b70565b93506f8000000000000000000000000000000081836123449190613c5f565b61234e9190613bfd565b9150700800000000000000000000000000000000836f8888888888888888888888888888888861237e9190613cb9565b836123899190613c5f565b6123939190613bfd565b8461239e9190613b70565b935083945050505050919050565b60008060009050600083905070010000000000000000000000000000000081106124245760006123f66f80000000000000000000000000000000836123f19190613bfd565b613599565b90508060ff1682901c91506f800000000000000000000000000000008160ff166124209190613c5f565b9250505b6f800000000000000000000000000000008111156124cc576000607f90505b60008160ff1611156124ca576f80000000000000000000000000000000828361246c9190613c5f565b6124769190613bfd565b915070010000000000000000000000000000000082106124b957600182901c91506001816124a49190613ced565b60ff166001901b836124b69190613b70565b92505b806124c390613e37565b9050612443565b505b6f05b9de1d10bf4103d647b0955897ba806f03f80fe03f80fe03f80fe03f80fe03f8836124f99190613c5f565b6125039190613bfd565b92505050919050565b600080600090506000806f10000000000000000000000000000000856125329190613edc565b91508190506f8000000000000000000000000000000082826125549190613c5f565b61255e9190613bfd565b90506710e1b3be415a0000816125749190613c5f565b8361257f9190613b70565b92506f80000000000000000000000000000000828261259e9190613c5f565b6125a89190613bfd565b90506705a0913f6b1e0000816125be9190613c5f565b836125c99190613b70565b92506f8000000000000000000000000000000082826125e89190613c5f565b6125f29190613bfd565b9050670168244fdac78000816126089190613c5f565b836126139190613b70565b92506f8000000000000000000000000000000082826126329190613c5f565b61263c9190613bfd565b9050664807432bc18000816126519190613c5f565b8361265c9190613b70565b92506f80000000000000000000000000000000828261267b9190613c5f565b6126859190613bfd565b9050660c0135dca040008161269a9190613c5f565b836126a59190613b70565b92506f8000000000000000000000000000000082826126c49190613c5f565b6126ce9190613bfd565b90506601b707b1cdc000816126e39190613c5f565b836126ee9190613b70565b92506f80000000000000000000000000000000828261270d9190613c5f565b6127179190613bfd565b90506536e0f639b8008161272b9190613c5f565b836127369190613b70565b92506f8000000000000000000000000000000082826127559190613c5f565b61275f9190613bfd565b9050650618fee9f800816127739190613c5f565b8361277e9190613b70565b92506f80000000000000000000000000000000828261279d9190613c5f565b6127a79190613bfd565b9050649c197dcc00816127ba9190613c5f565b836127c59190613b70565b92506f8000000000000000000000000000000082826127e49190613c5f565b6127ee9190613bfd565b9050640e30dce400816128019190613c5f565b8361280c9190613b70565b92506f80000000000000000000000000000000828261282b9190613c5f565b6128359190613bfd565b905064012ebd1300816128489190613c5f565b836128539190613b70565b92506f8000000000000000000000000000000082826128729190613c5f565b61287c9190613bfd565b90506317499f008161288e9190613c5f565b836128999190613b70565b92506f8000000000000000000000000000000082826128b89190613c5f565b6128c29190613bfd565b90506301a9d480816128d49190613c5f565b836128df9190613b70565b92506f8000000000000000000000000000000082826128fe9190613c5f565b6129089190613bfd565b9050621c6380816129199190613c5f565b836129249190613b70565b92506f8000000000000000000000000000000082826129439190613c5f565b61294d9190613bfd565b90506201c6388161295e9190613c5f565b836129699190613b70565b92506f8000000000000000000000000000000082826129889190613c5f565b6129929190613bfd565b9050611ab8816129a29190613c5f565b836129ad9190613b70565b92506f8000000000000000000000000000000082826129cc9190613c5f565b6129d69190613bfd565b905061017c816129e69190613c5f565b836129f19190613b70565b92506f800000000000000000000000000000008282612a109190613c5f565b612a1a9190613bfd565b9050601481612a299190613c5f565b83612a349190613b70565b92506f800000000000000000000000000000008282612a539190613c5f565b612a5d9190613bfd565b9050600181612a6c9190613c5f565b83612a779190613b70565b92506f80000000000000000000000000000000826721c3677c82b4000085612a9f9190613bfd565b612aa99190613b70565b612ab39190613b70565b925060006f10000000000000000000000000000000861614612b0b5770018ebef9eac820ae8682b9793ac6d1e7767001c3d6a24ed82218787d624d3e5eba95f984612afe9190613c5f565b612b089190613bfd565b92505b60006f20000000000000000000000000000000861614612b61577001368b2fc6f9609fe7aceb46aa619baed470018ebef9eac820ae8682b9793ac6d1e77884612b549190613c5f565b612b5e9190613bfd565b92505b60006f40000000000000000000000000000000861614612bb6576fbc5ab1b16779be3575bd8f0520a9f21f7001368b2fc6f9609fe7aceb46aa619baed584612ba99190613c5f565b612bb39190613bfd565b92505b60006f80000000000000000000000000000000861614612c0a576f454aaa8efe072e7f6ddbab84b40a55c96fbc5ab1b16779be3575bd8f0520a9f21e84612bfd9190613c5f565b612c079190613bfd565b92505b6000700100000000000000000000000000000000861614612c5f576f0960aadc109e7a3bf4578099615711ea6f454aaa8efe072e7f6ddbab84b40a55c584612c529190613c5f565b612c5c9190613bfd565b92505b6000700200000000000000000000000000000000861614612cb3576e2bf84208204f5977f9a8cf01fdce3d6f0960aadc109e7a3bf4578099615711d784612ca69190613c5f565b612cb09190613bfd565b92505b6000700400000000000000000000000000000000861614612d05576d03c6ab775dd0b95b4cbee7e65d116e2bf84208204f5977f9a8cf01fdc30784612cf89190613c5f565b612d029190613bfd565b92505b829350505050919050565b600080602090506000607f90505b8060ff16600183612d2f9190613bc6565b60ff161015612dab57600060028284612d489190613bc6565b612d529190613c2e565b90508460028260ff1660808110612d92577f4e487b7100000000000000000000000000000000000000000000000000000000600052603260045260246000fd5b015410612da157809250612da5565b8091505b50612d1e565b8360028260ff1660808110612de9577f4e487b7100000000000000000000000000000000000000000000000000000000600052603260045260246000fd5b015410612dfa578092505050612e85565b8360028360ff1660808110612e38577f4e487b7100000000000000000000000000000000000000000000000000000000600052603260045260246000fd5b015410612e49578192505050612e85565b6000612e7e577f4e487b7100000000000000000000000000000000000000000000000000000000600052600160045260246000fd5b6000925050505b919050565b60008083905060008360ff168583612ea29190613c5f565b901c91506f03442c4e6074a82f1797f72ac000000082612ec29190613c5f565b81612ecd9190613b70565b90508360ff168583612edf9190613c5f565b901c91506f0116b96f757c380fb287fd0e4000000082612eff9190613c5f565b81612f0a9190613b70565b90508360ff168583612f1c9190613c5f565b901c91506e45ae5bdd5f0e03eca1ff439000000082612f3b9190613c5f565b81612f469190613b70565b90508360ff168583612f589190613c5f565b901c91506e0defabf91302cd95b9ffda5000000082612f779190613c5f565b81612f829190613b70565b90508360ff168583612f949190613c5f565b901c91506e02529ca9832b22439efff9b800000082612fb39190613c5f565b81612fbe9190613b70565b90508360ff168583612fd09190613c5f565b901c91506d54f1cf12bd04e516b6da8800000082612fee9190613c5f565b81612ff99190613b70565b90508360ff16858361300b9190613c5f565b901c91506d0a9e39e257a09ca2d6db51000000826130299190613c5f565b816130349190613b70565b90508360ff1685836130469190613c5f565b901c91506d012e066e7b839fa050c309000000826130649190613c5f565b8161306f9190613b70565b90508360ff1685836130819190613c5f565b901c91506c1e33d7d926c329a1ad1a8000008261309e9190613c5f565b816130a99190613b70565b90508360ff1685836130bb9190613c5f565b901c91506c02bee513bdb4a6b19b5f800000826130d89190613c5f565b816130e39190613b70565b90508360ff1685836130f59190613c5f565b901c91506b3a9316fa79b88eccf2a00000826131119190613c5f565b8161311c9190613b70565b90508360ff16858361312e9190613c5f565b901c91506b048177ebe1fa8123752000008261314a9190613c5f565b816131559190613b70565b90508360ff1685836131679190613c5f565b901c91506a5263fe90242dcbacf00000826131829190613c5f565b8161318d9190613b70565b90508360ff16858361319f9190613c5f565b901c91506a057e22099c030d94100000826131ba9190613c5f565b816131c59190613b70565b90508360ff1685836131d79190613c5f565b901c91506957e22099c030d9410000826131f19190613c5f565b816131fc9190613b70565b90508360ff16858361320e9190613c5f565b901c915069052b6b54569976310000826132289190613c5f565b816132339190613b70565b90508360ff1685836132459190613c5f565b901c9150684985f67696bf7480008261325e9190613c5f565b816132699190613b70565b90508360ff16858361327b9190613c5f565b901c91506803dea12ea99e498000826132949190613c5f565b8161329f9190613b70565b90508360ff1685836132b19190613c5f565b901c91506731880f2214b6e000826132c99190613c5f565b816132d49190613b70565b90508360ff1685836132e69190613c5f565b901c915067025bcff56eb36000826132fe9190613c5f565b816133099190613b70565b90508360ff16858361331b9190613c5f565b901c9150661b722e10ab1000826133329190613c5f565b8161333d9190613b70565b90508360ff16858361334f9190613c5f565b901c91506601317c70077000826133669190613c5f565b816133719190613b70565b90508360ff1685836133839190613c5f565b901c9150650cba84aafa00826133999190613c5f565b816133a49190613b70565b90508360ff1685836133b69190613c5f565b901c91506482573a0a00826133cb9190613c5f565b816133d69190613b70565b90508360ff1685836133e89190613c5f565b901c91506405035ad900826133fd9190613c5f565b816134089190613b70565b90508360ff16858361341a9190613c5f565b901c9150632f881b008261342e9190613c5f565b816134399190613b70565b90508360ff16858361344b9190613c5f565b901c91506301b293408261345f9190613c5f565b8161346a9190613b70565b90508360ff16858361347c9190613c5f565b901c9150620efc408261348f9190613c5f565b8161349a9190613b70565b90508360ff1685836134ac9190613c5f565b901c9150617fe0826134be9190613c5f565b816134c99190613b70565b90508360ff1685836134db9190613c5f565b901c9150610420826134ed9190613c5f565b816134f89190613b70565b90508360ff16858361350a9190613c5f565b901c915060218261351b9190613c5f565b816135269190613b70565b90508360ff1685836135389190613c5f565b901c91506001826135499190613c5f565b816135549190613b70565b90508360ff166001901b856f0688589cc0e9505e2f2fee55800000008361357b9190613bfd565b6135859190613b70565b61358f9190613b70565b9250505092915050565b6000806000905060008390506101008110156135d9575b60018111156135d457600181901c90506001826135cd9190613bc6565b91506135b0565b61361a565b6000608090505b60008160ff161115613618578060ff166001901b8210613609578060ff1682901c915080831792505b60018160ff16901c90506135e0565b505b8192505050919050565b60008135905061363381613fab565b92915050565b60008151905061364881613fc2565b92915050565b60008135905061365d81613fd9565b92915050565b60008151905061367281613fd9565b92915050565b60008135905061368781613ff0565b92915050565b60006020828403121561369f57600080fd5b60006136ad84828501613624565b91505092915050565b6000806000606084860312156136cb57600080fd5b60006136d986828701613624565b93505060206136ea8682870161364e565b92505060406136fb8682870161364e565b9150509250925092565b60006020828403121561371757600080fd5b600061372584828501613639565b91505092915050565b60006020828403121561374057600080fd5b600061374e8482850161364e565b91505092915050565b60006020828403121561376957600080fd5b600061377784828501613663565b91505092915050565b6000806040838503121561379357600080fd5b60006137a18582860161364e565b92505060206137b28582860161364e565b9150509250929050565b600080600080608085870312156137d257600080fd5b60006137e08782880161364e565b94505060206137f18782880161364e565b935050604061380287828801613678565b92505060606138138782880161364e565b91505092959194509250565b61382881613d21565b82525050565b61383781613d86565b82525050565b61384681613daa565b82525050565b61385581613dce565b82525050565b61386481613df2565b82525050565b600061387582613b54565b61387f8185613b5f565b935061388f818560208601613e04565b61389881613f9a565b840191505092915050565b60006138b0602683613b5f565b91507f4f776e61626c653a206e6577206f776e657220697320746865207a65726f206160008301527f64647265737300000000000000000000000000000000000000000000000000006020830152604082019050919050565b6000613916602083613b5f565b91507f4f776e61626c653a2063616c6c6572206973206e6f7420746865206f776e65726000830152602082019050919050565b6000613956601c83613b5f565b91507f4261736573203c203120617265206e6f7420737570706f727465642e000000006000830152602082019050919050565b61399281613d5f565b82525050565b6139a181613d69565b82525050565b60006020820190506139bc600083018461381f565b92915050565b60006060820190506139d7600083018661381f565b6139e4602083018561381f565b6139f16040830184613989565b949350505050565b6000604082019050613a0e600083018561381f565b613a1b602083018461385b565b9392505050565b6000604082019050613a37600083018561381f565b613a446020830184613989565b9392505050565b6000602082019050613a60600083018461382e565b92915050565b6000602082019050613a7b600083018461383d565b92915050565b6000602082019050613a96600083018461384c565b92915050565b60006020820190508181036000830152613ab6818461386a565b905092915050565b60006020820190508181036000830152613ad7816138a3565b9050919050565b60006020820190508181036000830152613af781613909565b9050919050565b60006020820190508181036000830152613b1781613949565b9050919050565b6000602082019050613b336000830184613989565b92915050565b6000602082019050613b4e6000830184613998565b92915050565b600081519050919050565b600082825260208201905092915050565b6000613b7b82613d5f565b9150613b8683613d5f565b9250827fffffffffffffffffffffffffffffffffffffffffffffffffffffffffffffffff03821115613bbb57613bba613f0d565b5b828201905092915050565b6000613bd182613d79565b9150613bdc83613d79565b92508260ff03821115613bf257613bf1613f0d565b5b828201905092915050565b6000613c0882613d5f565b9150613c1383613d5f565b925082613c2357613c22613f3c565b5b828204905092915050565b6000613c3982613d79565b9150613c4483613d79565b925082613c5457613c53613f3c565b5b828204905092915050565b6000613c6a82613d5f565b9150613c7583613d5f565b9250817fffffffffffffffffffffffffffffffffffffffffffffffffffffffffffffffff0483118215151615613cae57613cad613f0d565b5b828202905092915050565b6000613cc482613d5f565b9150613ccf83613d5f565b925082821015613ce257613ce1613f0d565b5b828203905092915050565b6000613cf882613d79565b9150613d0383613d79565b925082821015613d1657613d15613f0d565b5b828203905092915050565b6000613d2c82613d3f565b9050919050565b60008115159050919050565b600073ffffffffffffffffffffffffffffffffffffffff82169050919050565b6000819050919050565b600063ffffffff82169050919050565b600060ff82169050919050565b6000613d9182613d98565b9050919050565b6000613da382613d3f565b9050919050565b6000613db582613dbc565b9050919050565b6000613dc782613d3f565b9050919050565b6000613dd982613de0565b9050919050565b6000613deb82613d3f565b9050919050565b6000613dfd82613d5f565b9050919050565b60005b83811015613e22578082015181840152602081019050613e07565b83811115613e31576000848401525b50505050565b6000613e4282613d79565b91506000821415613e5657613e55613f0d565b5b600182039050919050565b60006002820490506001821680613e7957607f821691505b60208210811415613e8d57613e8c613f6b565b5b50919050565b6000613e9e82613d5f565b91507fffffffffffffffffffffffffffffffffffffffffffffffffffffffffffffffff821415613ed157613ed0613f0d565b5b600182019050919050565b6000613ee782613d5f565b9150613ef283613d5f565b925082613f0257613f01613f3c565b5b828206905092915050565b7f4e487b7100000000000000000000000000000000000000000000000000000000600052601160045260246000fd5b7f4e487b7100000000000000000000000000000000000000000000000000000000600052601260045260246000fd5b7f4e487b7100000000000000000000000000000000000000000000000000000000600052602260045260246000fd5b6000601f19601f8301169050919050565b613fb481613d21565b8114613fbf57600080fd5b50565b613fcb81613d33565b8114613fd657600080fd5b50565b613fe281613d5f565b8114613fed57600080fd5b50565b613ff981613d69565b811461400457600080fd5b5056fea2646970667358221220202267963048d4dd0de1cf5d2616c518db8f08173815d093bfd7812caa6a292464736f6c63430008000033",
  "linkReferences": {},
  "deployedLinkReferences": {}
}